{
	"InterestRateModel.sol": {
		"InterestRateModel": {
			"abi": [
				{
					"inputs": [
						{
							"internalType": "uint256",
							"name": "baseRatePerYear",
							"type": "uint256"
						},
						{
							"internalType": "uint256",
							"name": "multiplierPerYear",
							"type": "uint256"
						}
					],
					"payable": false,
					"stateMutability": "nonpayable",
					"type": "constructor"
				},
				{
					"anonymous": false,
					"inputs": [
						{
							"indexed": false,
							"internalType": "uint256",
							"name": "baseRatePerBlock",
							"type": "uint256"
						},
						{
							"indexed": false,
							"internalType": "uint256",
							"name": "multiplierPerBlock",
							"type": "uint256"
						}
					],
					"name": "NewInterestParams",
					"type": "event"
				},
				{
					"constant": true,
					"inputs": [],
					"name": "baseRatePerBlock",
					"outputs": [
						{
							"internalType": "uint256",
							"name": "",
							"type": "uint256"
						}
					],
					"payable": false,
					"stateMutability": "view",
					"type": "function"
				},
				{
					"constant": true,
					"inputs": [],
					"name": "blocksPerYear",
					"outputs": [
						{
							"internalType": "uint256",
							"name": "",
							"type": "uint256"
						}
					],
					"payable": false,
					"stateMutability": "view",
					"type": "function"
				},
				{
					"constant": true,
					"inputs": [
						{
							"internalType": "uint256",
							"name": "cash",
							"type": "uint256"
						},
						{
							"internalType": "uint256",
							"name": "borrows",
							"type": "uint256"
						},
						{
							"internalType": "uint256",
							"name": "reserves",
							"type": "uint256"
						}
					],
					"name": "getBorrowRate",
					"outputs": [
						{
							"internalType": "uint256",
							"name": "",
							"type": "uint256"
						}
					],
					"payable": false,
					"stateMutability": "view",
					"type": "function"
				},
				{
					"constant": true,
					"inputs": [
						{
							"internalType": "uint256",
							"name": "cash",
							"type": "uint256"
						},
						{
							"internalType": "uint256",
							"name": "borrows",
							"type": "uint256"
						},
						{
							"internalType": "uint256",
							"name": "reserves",
							"type": "uint256"
						},
						{
							"internalType": "uint256",
							"name": "reserveFactorMantissa",
							"type": "uint256"
						}
					],
					"name": "getSupplyRate",
					"outputs": [
						{
							"internalType": "uint256",
							"name": "",
							"type": "uint256"
						}
					],
					"payable": false,
					"stateMutability": "view",
					"type": "function"
				},
				{
					"constant": true,
					"inputs": [],
					"name": "isInterestRateModel",
					"outputs": [
						{
							"internalType": "bool",
							"name": "",
							"type": "bool"
						}
					],
					"payable": false,
					"stateMutability": "view",
					"type": "function"
				},
				{
					"constant": true,
					"inputs": [],
					"name": "multiplierPerBlock",
					"outputs": [
						{
							"internalType": "uint256",
							"name": "",
							"type": "uint256"
						}
					],
					"payable": false,
					"stateMutability": "view",
					"type": "function"
				},
				{
					"constant": true,
					"inputs": [
						{
							"internalType": "uint256",
							"name": "cash",
							"type": "uint256"
						},
						{
							"internalType": "uint256",
							"name": "borrows",
							"type": "uint256"
						},
						{
							"internalType": "uint256",
							"name": "reserves",
							"type": "uint256"
						}
					],
					"name": "utilizationRate",
					"outputs": [
						{
							"internalType": "uint256",
							"name": "",
							"type": "uint256"
						}
					],
					"payable": false,
					"stateMutability": "view",
					"type": "function"
				}
			],
			"devdoc": {
				"author": "Niural",
				"methods": {
					"constructor": {
						"params": {
							"baseRatePerYear": "The approximate target base APR, as a mantissa (scaled by 1e18)",
							"multiplierPerYear": "The rate of increase in interest rate wrt utilization (scaled by 1e18)"
						}
					},
					"getBorrowRate(uint256,uint256,uint256)": {
						"params": {
							"borrows": "The amount of borrows in the market",
							"cash": "The amount of cash in the market",
							"reserves": "The amount of reserves in the market"
						},
						"return": "The borrow rate percentage per block as a mantissa (scaled by 1e18)"
					},
					"getSupplyRate(uint256,uint256,uint256,uint256)": {
						"params": {
							"borrows": "The amount of borrows in the market",
							"cash": "The amount of cash in the market",
							"reserveFactorMantissa": "The current reserve factor for the market",
							"reserves": "The amount of reserves in the market"
						},
						"return": "The supply rate percentage per block as a mantissa (scaled by 1e18)"
					},
					"utilizationRate(uint256,uint256,uint256)": {
						"params": {
							"borrows": "The amount of borrows in the market",
							"cash": "The amount of cash in the market",
							"reserves": "The amount of reserves in the market (currently unused)"
						},
						"return": "The utilization rate as a mantissa between [0, 1e18]"
					}
				},
				"title": "Niural's InterestRateModel Contract"
			},
			"evm": {
				"assembly": "    /* \"InterestRateModel.sol\":323:3603  contract InterestRateModel is InterestRateModelInterface {... */\n  mstore(0x40, 0x80)\n    /* \"InterestRateModel.sol\":1208:1481  constructor(uint baseRatePerYear, uint multiplierPerYear) public {... */\n  callvalue\n    /* \"--CODEGEN--\":8:17   */\n  dup1\n    /* \"--CODEGEN--\":5:7   */\n  iszero\n  tag_1\n  jumpi\n    /* \"--CODEGEN--\":30:31   */\n  0x00\n    /* \"--CODEGEN--\":27:28   */\n  dup1\n    /* \"--CODEGEN--\":20:32   */\n  revert\n    /* \"--CODEGEN--\":5:7   */\ntag_1:\n    /* \"InterestRateModel.sol\":1208:1481  constructor(uint baseRatePerYear, uint multiplierPerYear) public {... */\n  pop\n  mload(0x40)\n  sub(codesize, bytecodeSize)\n  dup1\n  bytecodeSize\n  dup4\n  codecopy\n  dup2\n  dup2\n  add\n  0x40\n  mstore\n    /* \"--CODEGEN--\":13:15   */\n  0x40\n    /* \"--CODEGEN--\":8:11   */\n  dup2\n    /* \"--CODEGEN--\":5:16   */\n  lt\n    /* \"--CODEGEN--\":2:4   */\n  iszero\n  tag_2\n  jumpi\n    /* \"--CODEGEN--\":29:30   */\n  0x00\n    /* \"--CODEGEN--\":26:27   */\n  dup1\n    /* \"--CODEGEN--\":19:31   */\n  revert\n    /* \"--CODEGEN--\":2:4   */\ntag_2:\n    /* \"InterestRateModel.sol\":1208:1481  constructor(uint baseRatePerYear, uint multiplierPerYear) public {... */\n  dup2\n  add\n  swap1\n  dup1\n  dup1\n  mload\n  swap1\n  0x20\n  add\n  swap1\n  swap3\n  swap2\n  swap1\n  dup1\n  mload\n  swap1\n  0x20\n  add\n  swap1\n  swap3\n  swap2\n  swap1\n  pop\n  pop\n  pop\n    /* \"InterestRateModel.sol\":1302:1336  baseRatePerYear.div(blocksPerYear) */\n  tag_5\n    /* \"InterestRateModel.sol\":647:654  2102400 */\n  0x201480\n    /* \"InterestRateModel.sol\":1302:1317  baseRatePerYear */\n  dup4\n    /* \"InterestRateModel.sol\":1302:1321  baseRatePerYear.div */\n  or(tag_0_34, shl(0x20, tag_6))\n  swap1\n    /* \"InterestRateModel.sol\":1302:1336  baseRatePerYear.div(blocksPerYear) */\n  swap2\n  swap1\n  0x20\n  shr\n  jump\t// in\ntag_5:\n    /* \"InterestRateModel.sol\":1283:1299  baseRatePerBlock */\n  0x01\n    /* \"InterestRateModel.sol\":1283:1336  baseRatePerBlock = baseRatePerYear.div(blocksPerYear) */\n  dup2\n  swap1\n  sstore\n  pop\n    /* \"InterestRateModel.sol\":1367:1403  multiplierPerYear.div(blocksPerYear) */\n  tag_7\n    /* \"InterestRateModel.sol\":647:654  2102400 */\n  0x201480\n    /* \"InterestRateModel.sol\":1367:1384  multiplierPerYear */\n  dup3\n    /* \"InterestRateModel.sol\":1367:1388  multiplierPerYear.div */\n  or(tag_0_34, shl(0x20, tag_6))\n  swap1\n    /* \"InterestRateModel.sol\":1367:1403  multiplierPerYear.div(blocksPerYear) */\n  swap2\n  swap1\n  0x20\n  shr\n  jump\t// in\ntag_7:\n    /* \"InterestRateModel.sol\":1346:1364  multiplierPerBlock */\n  0x00\n    /* \"InterestRateModel.sol\":1346:1403  multiplierPerBlock = multiplierPerYear.div(blocksPerYear) */\n  dup2\n  swap1\n  sstore\n  pop\n    /* \"InterestRateModel.sol\":1419:1474  NewInterestParams(baseRatePerBlock, multiplierPerBlock) */\n  0xf35fa19c15e9ba782633a5df62a98b20217151addc68e3ff2cd623a48d37ec27\n    /* \"InterestRateModel.sol\":1437:1453  baseRatePerBlock */\n  sload(0x01)\n    /* \"InterestRateModel.sol\":1455:1473  multiplierPerBlock */\n  sload(0x00)\n    /* \"InterestRateModel.sol\":1419:1474  NewInterestParams(baseRatePerBlock, multiplierPerBlock) */\n  mload(0x40)\n  dup1\n  dup4\n  dup2\n  mstore\n  0x20\n  add\n  dup3\n  dup2\n  mstore\n  0x20\n  add\n  swap3\n  pop\n  pop\n  pop\n  mload(0x40)\n  dup1\n  swap2\n  sub\n  swap1\n  log1\n    /* \"InterestRateModel.sol\":1208:1481  constructor(uint baseRatePerYear, uint multiplierPerYear) public {... */\n  pop\n  pop\n    /* \"InterestRateModel.sol\":323:3603  contract InterestRateModel is InterestRateModelInterface {... */\n  jump(tag_8)\n    /* \"OpenZeppelin/SafeMath.sol\":4267:4397  function div(uint256 a, uint256 b) internal pure returns (uint256) {... */\ntag_6:\n    /* \"OpenZeppelin/SafeMath.sol\":4325:4332  uint256 */\n  0x00\n    /* \"OpenZeppelin/SafeMath.sol\":4351:4390  div(a, b, \"SafeMath: division by zero\") */\n  tag_10\n    /* \"OpenZeppelin/SafeMath.sol\":4355:4356  a */\n  dup4\n    /* \"OpenZeppelin/SafeMath.sol\":4358:4359  b */\n  dup4\n    /* \"OpenZeppelin/SafeMath.sol\":4351:4390  div(a, b, \"SafeMath: division by zero\") */\n  mload(0x40)\n  dup1\n  0x40\n  add\n  0x40\n  mstore\n  dup1\n  0x1a\n  dup2\n  mstore\n  0x20\n  add\n  0x536166654d6174683a206469766973696f6e206279207a65726f000000000000\n  dup2\n  mstore\n  pop\n    /* \"OpenZeppelin/SafeMath.sol\":4351:4354  div */\n  shl(0x20, tag_11)\n    /* \"OpenZeppelin/SafeMath.sol\":4351:4390  div(a, b, \"SafeMath: division by zero\") */\n  0x20\n  shr\n  jump\t// in\ntag_10:\n    /* \"OpenZeppelin/SafeMath.sol\":4344:4390  return div(a, b, \"SafeMath: division by zero\") */\n  swap1\n  pop\n    /* \"OpenZeppelin/SafeMath.sol\":4267:4397  function div(uint256 a, uint256 b) internal pure returns (uint256) {... */\n  swap3\n  swap2\n  pop\n  pop\n  jump\t// out\n    /* \"OpenZeppelin/SafeMath.sol\":4872:5210  function div(uint256 a, uint256 b, string memory errorMessage) internal pure returns (uint256) {... */\ntag_11:\n    /* \"OpenZeppelin/SafeMath.sol\":4958:4965  uint256 */\n  0x00\n    /* \"OpenZeppelin/SafeMath.sol\":5055:5056  0 */\n  dup1\n    /* \"OpenZeppelin/SafeMath.sol\":5051:5052  b */\n  dup4\n    /* \"OpenZeppelin/SafeMath.sol\":5051:5056  b > 0 */\n  gt\n    /* \"OpenZeppelin/SafeMath.sol\":5058:5070  errorMessage */\n  dup3\n    /* \"OpenZeppelin/SafeMath.sol\":5043:5071  require(b > 0, errorMessage) */\n  swap1\n  tag_13\n  jumpi\n  mload(0x40)\n  0x08c379a000000000000000000000000000000000000000000000000000000000\n  dup2\n  mstore\n  0x04\n  add\n  dup1\n  dup1\n  0x20\n  add\n  dup3\n  dup2\n  sub\n  dup3\n  mstore\n  dup4\n  dup2\n  dup2\n  mload\n  dup2\n  mstore\n  0x20\n  add\n  swap2\n  pop\n  dup1\n  mload\n  swap1\n  0x20\n  add\n  swap1\n  dup1\n  dup4\n  dup4\n    /* \"--CODEGEN--\":23:24   */\n  0x00\n    /* \"--CODEGEN--\":8:108   */\ntag_14:\n    /* \"--CODEGEN--\":33:36   */\n  dup4\n    /* \"--CODEGEN--\":30:31   */\n  dup2\n    /* \"--CODEGEN--\":27:37   */\n  lt\n    /* \"--CODEGEN--\":8:108   */\n  iszero\n  tag_16\n  jumpi\n    /* \"--CODEGEN--\":99:100   */\n  dup1\n    /* \"--CODEGEN--\":94:97   */\n  dup3\n    /* \"--CODEGEN--\":90:101   */\n  add\n    /* \"--CODEGEN--\":84:102   */\n  mload\n    /* \"--CODEGEN--\":80:81   */\n  dup2\n    /* \"--CODEGEN--\":75:78   */\n  dup5\n    /* \"--CODEGEN--\":71:82   */\n  add\n    /* \"--CODEGEN--\":64:103   */\n  mstore\n    /* \"--CODEGEN--\":52:54   */\n  0x20\n    /* \"--CODEGEN--\":49:50   */\n  dup2\n    /* \"--CODEGEN--\":45:55   */\n  add\n    /* \"--CODEGEN--\":40:55   */\n  swap1\n  pop\n    /* \"--CODEGEN--\":8:108   */\n  jump(tag_14)\ntag_16:\n    /* \"--CODEGEN--\":12:26   */\n  pop\n    /* \"OpenZeppelin/SafeMath.sol\":5043:5071  require(b > 0, errorMessage) */\n  pop\n  pop\n  pop\n  swap1\n  pop\n  swap1\n  dup2\n  add\n  swap1\n  0x1f\n  and\n  dup1\n  iszero\n  tag_17\n  jumpi\n  dup1\n  dup3\n  sub\n  dup1\n  mload\n  0x01\n  dup4\n  0x20\n  sub\n  0x0100\n  exp\n  sub\n  not\n  and\n  dup2\n  mstore\n  0x20\n  add\n  swap2\n  pop\ntag_17:\n  pop\n  swap3\n  pop\n  pop\n  pop\n  mload(0x40)\n  dup1\n  swap2\n  sub\n  swap1\n  revert\ntag_13:\n  pop\n    /* \"OpenZeppelin/SafeMath.sol\":5081:5090  uint256 c */\n  0x00\n    /* \"OpenZeppelin/SafeMath.sol\":5097:5098  b */\n  dup4\n    /* \"OpenZeppelin/SafeMath.sol\":5093:5094  a */\n  dup6\n    /* \"OpenZeppelin/SafeMath.sol\":5093:5098  a / b */\n  dup2\n  tag_18\n  jumpi\n  invalid\ntag_18:\n  div\n    /* \"OpenZeppelin/SafeMath.sol\":5081:5098  uint256 c = a / b */\n  swap1\n  pop\n    /* \"OpenZeppelin/SafeMath.sol\":5202:5203  c */\n  dup1\n    /* \"OpenZeppelin/SafeMath.sol\":5195:5203  return c */\n  swap2\n  pop\n  pop\n    /* \"OpenZeppelin/SafeMath.sol\":4872:5210  function div(uint256 a, uint256 b, string memory errorMessage) internal pure returns (uint256) {... */\n  swap4\n  swap3\n  pop\n  pop\n  pop\n  jump\t// out\n    /* \"InterestRateModel.sol\":323:3603  contract InterestRateModel is InterestRateModelInterface {... */\ntag_8:\n  dataSize(sub_0)\n  dup1\n  dataOffset(sub_0)\n  0x00\n  codecopy\n  0x00\n  return\nstop\n\nsub_0: assembly {\n        /* \"InterestRateModel.sol\":323:3603  contract InterestRateModel is InterestRateModelInterface {... */\n      mstore(0x40, 0x80)\n      callvalue\n        /* \"--CODEGEN--\":8:17   */\n      dup1\n        /* \"--CODEGEN--\":5:7   */\n      iszero\n      tag_1\n      jumpi\n        /* \"--CODEGEN--\":30:31   */\n      0x00\n        /* \"--CODEGEN--\":27:28   */\n      dup1\n        /* \"--CODEGEN--\":20:32   */\n      revert\n        /* \"--CODEGEN--\":5:7   */\n    tag_1:\n        /* \"InterestRateModel.sol\":323:3603  contract InterestRateModel is InterestRateModelInterface {... */\n      pop\n      jumpi(tag_2, lt(calldatasize, 0x04))\n      shr(0xe0, calldataload(0x00))\n      dup1\n      0x8726bb89\n      gt\n      tag_10\n      jumpi\n      dup1\n      0x8726bb89\n      eq\n      tag_6\n      jumpi\n      dup1\n      0xa385fb96\n      eq\n      tag_7\n      jumpi\n      dup1\n      0xb8168816\n      eq\n      tag_8\n      jumpi\n      dup1\n      0xf14039de\n      eq\n      tag_9\n      jumpi\n      jump(tag_2)\n    tag_10:\n      dup1\n      0x15f24053\n      eq\n      tag_3\n      jumpi\n      dup1\n      0x2191f92a\n      eq\n      tag_4\n      jumpi\n      dup1\n      0x6e71e2d8\n      eq\n      tag_5\n      jumpi\n    tag_2:\n      0x00\n      dup1\n      revert\n        /* \"InterestRateModel.sol\":2531:2763  function getBorrowRate(uint cash, uint borrows, uint reserves) public view returns (uint) {... */\n    tag_3:\n      tag_11\n      0x04\n      dup1\n      calldatasize\n      sub\n        /* \"--CODEGEN--\":13:15   */\n      0x60\n        /* \"--CODEGEN--\":8:11   */\n      dup2\n        /* \"--CODEGEN--\":5:16   */\n      lt\n        /* \"--CODEGEN--\":2:4   */\n      iszero\n      tag_12\n      jumpi\n        /* \"--CODEGEN--\":29:30   */\n      0x00\n        /* \"--CODEGEN--\":26:27   */\n      dup1\n        /* \"--CODEGEN--\":19:31   */\n      revert\n        /* \"--CODEGEN--\":2:4   */\n    tag_12:\n        /* \"InterestRateModel.sol\":2531:2763  function getBorrowRate(uint cash, uint borrows, uint reserves) public view returns (uint) {... */\n      dup2\n      add\n      swap1\n      dup1\n      dup1\n      calldataload\n      swap1\n      0x20\n      add\n      swap1\n      swap3\n      swap2\n      swap1\n      dup1\n      calldataload\n      swap1\n      0x20\n      add\n      swap1\n      swap3\n      swap2\n      swap1\n      dup1\n      calldataload\n      swap1\n      0x20\n      add\n      swap1\n      swap3\n      swap2\n      swap1\n      pop\n      pop\n      pop\n      tag_13\n      jump\t// in\n    tag_11:\n      mload(0x40)\n      dup1\n      dup3\n      dup2\n      mstore\n      0x20\n      add\n      swap2\n      pop\n      pop\n      mload(0x40)\n      dup1\n      swap2\n      sub\n      swap1\n      return\n        /* \"InterestRateModelInterface.sol\":291:338  bool public constant isInterestRateModel = true */\n    tag_4:\n      tag_14\n      tag_15\n      jump\t// in\n    tag_14:\n      mload(0x40)\n      dup1\n      dup3\n      iszero\n      iszero\n      iszero\n      iszero\n      dup2\n      mstore\n      0x20\n      add\n      swap2\n      pop\n      pop\n      mload(0x40)\n      dup1\n      swap2\n      sub\n      swap1\n      return\n        /* \"InterestRateModel.sol\":1862:2152  function utilizationRate(uint cash, uint borrows, uint reserves) public pure returns (uint) {... */\n    tag_5:\n      tag_16\n      0x04\n      dup1\n      calldatasize\n      sub\n        /* \"--CODEGEN--\":13:15   */\n      0x60\n        /* \"--CODEGEN--\":8:11   */\n      dup2\n        /* \"--CODEGEN--\":5:16   */\n      lt\n        /* \"--CODEGEN--\":2:4   */\n      iszero\n      tag_17\n      jumpi\n        /* \"--CODEGEN--\":29:30   */\n      0x00\n        /* \"--CODEGEN--\":26:27   */\n      dup1\n        /* \"--CODEGEN--\":19:31   */\n      revert\n        /* \"--CODEGEN--\":2:4   */\n    tag_17:\n        /* \"InterestRateModel.sol\":1862:2152  function utilizationRate(uint cash, uint borrows, uint reserves) public pure returns (uint) {... */\n      dup2\n      add\n      swap1\n      dup1\n      dup1\n      calldataload\n      swap1\n      0x20\n      add\n      swap1\n      swap3\n      swap2\n      swap1\n      dup1\n      calldataload\n      swap1\n      0x20\n      add\n      swap1\n      swap3\n      swap2\n      swap1\n      dup1\n      calldataload\n      swap1\n      0x20\n      add\n      swap1\n      swap3\n      swap2\n      swap1\n      pop\n      pop\n      pop\n      tag_18\n      jump\t// in\n    tag_16:\n      mload(0x40)\n      dup1\n      dup3\n      dup2\n      mstore\n      0x20\n      add\n      swap2\n      pop\n      pop\n      mload(0x40)\n      dup1\n      swap2\n      sub\n      swap1\n      return\n        /* \"InterestRateModel.sol\":769:799  uint public multiplierPerBlock */\n    tag_6:\n      tag_19\n      tag_20\n      jump\t// in\n    tag_19:\n      mload(0x40)\n      dup1\n      dup3\n      dup2\n      mstore\n      0x20\n      add\n      swap2\n      pop\n      pop\n      mload(0x40)\n      dup1\n      swap2\n      sub\n      swap1\n      return\n        /* \"InterestRateModel.sol\":610:654  uint public constant blocksPerYear = 2102400 */\n    tag_7:\n      tag_21\n      tag_22\n      jump\t// in\n    tag_21:\n      mload(0x40)\n      dup1\n      dup3\n      dup2\n      mstore\n      0x20\n      add\n      swap2\n      pop\n      pop\n      mload(0x40)\n      dup1\n      swap2\n      sub\n      swap1\n      return\n        /* \"InterestRateModel.sol\":3176:3601  function getSupplyRate(uint cash, uint borrows, uint reserves, uint reserveFactorMantissa) public view returns (uint) {... */\n    tag_8:\n      tag_23\n      0x04\n      dup1\n      calldatasize\n      sub\n        /* \"--CODEGEN--\":13:16   */\n      0x80\n        /* \"--CODEGEN--\":8:11   */\n      dup2\n        /* \"--CODEGEN--\":5:17   */\n      lt\n        /* \"--CODEGEN--\":2:4   */\n      iszero\n      tag_24\n      jumpi\n        /* \"--CODEGEN--\":30:31   */\n      0x00\n        /* \"--CODEGEN--\":27:28   */\n      dup1\n        /* \"--CODEGEN--\":20:32   */\n      revert\n        /* \"--CODEGEN--\":2:4   */\n    tag_24:\n        /* \"InterestRateModel.sol\":3176:3601  function getSupplyRate(uint cash, uint borrows, uint reserves, uint reserveFactorMantissa) public view returns (uint) {... */\n      dup2\n      add\n      swap1\n      dup1\n      dup1\n      calldataload\n      swap1\n      0x20\n      add\n      swap1\n      swap3\n      swap2\n      swap1\n      dup1\n      calldataload\n      swap1\n      0x20\n      add\n      swap1\n      swap3\n      swap2\n      swap1\n      dup1\n      calldataload\n      swap1\n      0x20\n      add\n      swap1\n      swap3\n      swap2\n      swap1\n      dup1\n      calldataload\n      swap1\n      0x20\n      add\n      swap1\n      swap3\n      swap2\n      swap1\n      pop\n      pop\n      pop\n      tag_25\n      jump\t// in\n    tag_23:\n      mload(0x40)\n      dup1\n      dup3\n      dup2\n      mstore\n      0x20\n      add\n      swap2\n      pop\n      pop\n      mload(0x40)\n      dup1\n      swap2\n      sub\n      swap1\n      return\n        /* \"InterestRateModel.sol\":912:940  uint public baseRatePerBlock */\n    tag_9:\n      tag_26\n      tag_27\n      jump\t// in\n    tag_26:\n      mload(0x40)\n      dup1\n      dup3\n      dup2\n      mstore\n      0x20\n      add\n      swap2\n      pop\n      pop\n      mload(0x40)\n      dup1\n      swap2\n      sub\n      swap1\n      return\n        /* \"InterestRateModel.sol\":2531:2763  function getBorrowRate(uint cash, uint borrows, uint reserves) public view returns (uint) {... */\n    tag_13:\n        /* \"InterestRateModel.sol\":2615:2619  uint */\n      0x00\n        /* \"InterestRateModel.sol\":2631:2638  uint ur */\n      dup1\n        /* \"InterestRateModel.sol\":2641:2681  utilizationRate(cash, borrows, reserves) */\n      tag_29\n        /* \"InterestRateModel.sol\":2657:2661  cash */\n      dup6\n        /* \"InterestRateModel.sol\":2663:2670  borrows */\n      dup6\n        /* \"InterestRateModel.sol\":2672:2680  reserves */\n      dup6\n        /* \"InterestRateModel.sol\":2641:2656  utilizationRate */\n      tag_18\n        /* \"InterestRateModel.sol\":2641:2681  utilizationRate(cash, borrows, reserves) */\n      jump\t// in\n    tag_29:\n        /* \"InterestRateModel.sol\":2631:2681  uint ur = utilizationRate(cash, borrows, reserves) */\n      swap1\n      pop\n        /* \"InterestRateModel.sol\":2698:2756  ur.mul(multiplierPerBlock).div(1e18).add(baseRatePerBlock) */\n      tag_30\n        /* \"InterestRateModel.sol\":2739:2755  baseRatePerBlock */\n      sload(0x01)\n        /* \"InterestRateModel.sol\":2698:2734  ur.mul(multiplierPerBlock).div(1e18) */\n      tag_31\n        /* \"InterestRateModel.sol\":2729:2733  1e18 */\n      0x0de0b6b3a7640000\n        /* \"InterestRateModel.sol\":2698:2724  ur.mul(multiplierPerBlock) */\n      tag_32\n        /* \"InterestRateModel.sol\":2705:2723  multiplierPerBlock */\n      sload(0x00)\n        /* \"InterestRateModel.sol\":2698:2700  ur */\n      dup7\n        /* \"InterestRateModel.sol\":2698:2704  ur.mul */\n      tag_33\n      swap1\n        /* \"InterestRateModel.sol\":2698:2724  ur.mul(multiplierPerBlock) */\n      swap2\n      swap1\n      0xffffffff\n      and\n      jump\t// in\n    tag_32:\n        /* \"InterestRateModel.sol\":2698:2728  ur.mul(multiplierPerBlock).div */\n      tag_34\n      swap1\n        /* \"InterestRateModel.sol\":2698:2734  ur.mul(multiplierPerBlock).div(1e18) */\n      swap2\n      swap1\n      0xffffffff\n      and\n      jump\t// in\n    tag_31:\n        /* \"InterestRateModel.sol\":2698:2738  ur.mul(multiplierPerBlock).div(1e18).add */\n      tag_35\n      swap1\n        /* \"InterestRateModel.sol\":2698:2756  ur.mul(multiplierPerBlock).div(1e18).add(baseRatePerBlock) */\n      swap2\n      swap1\n      0xffffffff\n      and\n      jump\t// in\n    tag_30:\n        /* \"InterestRateModel.sol\":2691:2756  return ur.mul(multiplierPerBlock).div(1e18).add(baseRatePerBlock) */\n      swap2\n      pop\n      pop\n        /* \"InterestRateModel.sol\":2531:2763  function getBorrowRate(uint cash, uint borrows, uint reserves) public view returns (uint) {... */\n      swap4\n      swap3\n      pop\n      pop\n      pop\n      jump\t// out\n        /* \"InterestRateModelInterface.sol\":291:338  bool public constant isInterestRateModel = true */\n    tag_15:\n        /* \"InterestRateModelInterface.sol\":334:338  true */\n      0x01\n        /* \"InterestRateModelInterface.sol\":291:338  bool public constant isInterestRateModel = true */\n      dup2\n      jump\t// out\n        /* \"InterestRateModel.sol\":1862:2152  function utilizationRate(uint cash, uint borrows, uint reserves) public pure returns (uint) {... */\n    tag_18:\n        /* \"InterestRateModel.sol\":1948:1952  uint */\n      0x00\n        /* \"InterestRateModel.sol\":2038:2039  0 */\n      dup1\n        /* \"InterestRateModel.sol\":2027:2034  borrows */\n      dup4\n        /* \"InterestRateModel.sol\":2027:2039  borrows == 0 */\n      eq\n        /* \"InterestRateModel.sol\":2023:2074  if (borrows == 0) {... */\n      iszero\n      tag_37\n      jumpi\n        /* \"InterestRateModel.sol\":2062:2063  0 */\n      0x00\n        /* \"InterestRateModel.sol\":2055:2063  return 0 */\n      swap1\n      pop\n      jump(tag_36)\n        /* \"InterestRateModel.sol\":2023:2074  if (borrows == 0) {... */\n    tag_37:\n        /* \"InterestRateModel.sol\":2091:2145  borrows.mul(1e18).div(cash.add(borrows).sub(reserves)) */\n      tag_38\n        /* \"InterestRateModel.sol\":2113:2144  cash.add(borrows).sub(reserves) */\n      tag_39\n        /* \"InterestRateModel.sol\":2135:2143  reserves */\n      dup4\n        /* \"InterestRateModel.sol\":2113:2130  cash.add(borrows) */\n      tag_40\n        /* \"InterestRateModel.sol\":2122:2129  borrows */\n      dup7\n        /* \"InterestRateModel.sol\":2113:2117  cash */\n      dup9\n        /* \"InterestRateModel.sol\":2113:2121  cash.add */\n      tag_35\n      swap1\n        /* \"InterestRateModel.sol\":2113:2130  cash.add(borrows) */\n      swap2\n      swap1\n      0xffffffff\n      and\n      jump\t// in\n    tag_40:\n        /* \"InterestRateModel.sol\":2113:2134  cash.add(borrows).sub */\n      tag_41\n      swap1\n        /* \"InterestRateModel.sol\":2113:2144  cash.add(borrows).sub(reserves) */\n      swap2\n      swap1\n      0xffffffff\n      and\n      jump\t// in\n    tag_39:\n        /* \"InterestRateModel.sol\":2091:2108  borrows.mul(1e18) */\n      tag_42\n        /* \"InterestRateModel.sol\":2103:2107  1e18 */\n      0x0de0b6b3a7640000\n        /* \"InterestRateModel.sol\":2091:2098  borrows */\n      dup7\n        /* \"InterestRateModel.sol\":2091:2102  borrows.mul */\n      tag_33\n      swap1\n        /* \"InterestRateModel.sol\":2091:2108  borrows.mul(1e18) */\n      swap2\n      swap1\n      0xffffffff\n      and\n      jump\t// in\n    tag_42:\n        /* \"InterestRateModel.sol\":2091:2112  borrows.mul(1e18).div */\n      tag_34\n      swap1\n        /* \"InterestRateModel.sol\":2091:2145  borrows.mul(1e18).div(cash.add(borrows).sub(reserves)) */\n      swap2\n      swap1\n      0xffffffff\n      and\n      jump\t// in\n    tag_38:\n        /* \"InterestRateModel.sol\":2084:2145  return borrows.mul(1e18).div(cash.add(borrows).sub(reserves)) */\n      swap1\n      pop\n        /* \"InterestRateModel.sol\":1862:2152  function utilizationRate(uint cash, uint borrows, uint reserves) public pure returns (uint) {... */\n    tag_36:\n      swap4\n      swap3\n      pop\n      pop\n      pop\n      jump\t// out\n        /* \"InterestRateModel.sol\":769:799  uint public multiplierPerBlock */\n    tag_20:\n      sload(0x00)\n      dup2\n      jump\t// out\n        /* \"InterestRateModel.sol\":610:654  uint public constant blocksPerYear = 2102400 */\n    tag_22:\n        /* \"InterestRateModel.sol\":647:654  2102400 */\n      0x201480\n        /* \"InterestRateModel.sol\":610:654  uint public constant blocksPerYear = 2102400 */\n      dup2\n      jump\t// out\n        /* \"InterestRateModel.sol\":3176:3601  function getSupplyRate(uint cash, uint borrows, uint reserves, uint reserveFactorMantissa) public view returns (uint) {... */\n    tag_25:\n        /* \"InterestRateModel.sol\":3288:3292  uint */\n      0x00\n        /* \"InterestRateModel.sol\":3304:3330  uint oneMinusReserveFactor */\n      dup1\n        /* \"InterestRateModel.sol\":3333:3370  uint(1e18).sub(reserveFactorMantissa) */\n      tag_44\n        /* \"InterestRateModel.sol\":3348:3369  reserveFactorMantissa */\n      dup4\n        /* \"InterestRateModel.sol\":3338:3342  1e18 */\n      0x0de0b6b3a7640000\n        /* \"InterestRateModel.sol\":3333:3347  uint(1e18).sub */\n      tag_41\n      swap1\n        /* \"InterestRateModel.sol\":3333:3370  uint(1e18).sub(reserveFactorMantissa) */\n      swap2\n      swap1\n      0xffffffff\n      and\n      jump\t// in\n    tag_44:\n        /* \"InterestRateModel.sol\":3304:3370  uint oneMinusReserveFactor = uint(1e18).sub(reserveFactorMantissa) */\n      swap1\n      pop\n        /* \"InterestRateModel.sol\":3380:3395  uint borrowRate */\n      0x00\n        /* \"InterestRateModel.sol\":3398:3436  getBorrowRate(cash, borrows, reserves) */\n      tag_45\n        /* \"InterestRateModel.sol\":3412:3416  cash */\n      dup8\n        /* \"InterestRateModel.sol\":3418:3425  borrows */\n      dup8\n        /* \"InterestRateModel.sol\":3427:3435  reserves */\n      dup8\n        /* \"InterestRateModel.sol\":3398:3411  getBorrowRate */\n      tag_13\n        /* \"InterestRateModel.sol\":3398:3436  getBorrowRate(cash, borrows, reserves) */\n      jump\t// in\n    tag_45:\n        /* \"InterestRateModel.sol\":3380:3436  uint borrowRate = getBorrowRate(cash, borrows, reserves) */\n      swap1\n      pop\n        /* \"InterestRateModel.sol\":3446:3461  uint rateToPool */\n      0x00\n        /* \"InterestRateModel.sol\":3464:3511  borrowRate.mul(oneMinusReserveFactor).div(1e18) */\n      tag_46\n        /* \"InterestRateModel.sol\":3506:3510  1e18 */\n      0x0de0b6b3a7640000\n        /* \"InterestRateModel.sol\":3464:3501  borrowRate.mul(oneMinusReserveFactor) */\n      tag_47\n        /* \"InterestRateModel.sol\":3479:3500  oneMinusReserveFactor */\n      dup6\n        /* \"InterestRateModel.sol\":3464:3474  borrowRate */\n      dup6\n        /* \"InterestRateModel.sol\":3464:3478  borrowRate.mul */\n      tag_33\n      swap1\n        /* \"InterestRateModel.sol\":3464:3501  borrowRate.mul(oneMinusReserveFactor) */\n      swap2\n      swap1\n      0xffffffff\n      and\n      jump\t// in\n    tag_47:\n        /* \"InterestRateModel.sol\":3464:3505  borrowRate.mul(oneMinusReserveFactor).div */\n      tag_34\n      swap1\n        /* \"InterestRateModel.sol\":3464:3511  borrowRate.mul(oneMinusReserveFactor).div(1e18) */\n      swap2\n      swap1\n      0xffffffff\n      and\n      jump\t// in\n    tag_46:\n        /* \"InterestRateModel.sol\":3446:3511  uint rateToPool = borrowRate.mul(oneMinusReserveFactor).div(1e18) */\n      swap1\n      pop\n        /* \"InterestRateModel.sol\":3528:3594  utilizationRate(cash, borrows, reserves).mul(rateToPool).div(1e18) */\n      tag_48\n        /* \"InterestRateModel.sol\":3589:3593  1e18 */\n      0x0de0b6b3a7640000\n        /* \"InterestRateModel.sol\":3528:3584  utilizationRate(cash, borrows, reserves).mul(rateToPool) */\n      tag_49\n        /* \"InterestRateModel.sol\":3573:3583  rateToPool */\n      dup4\n        /* \"InterestRateModel.sol\":3528:3568  utilizationRate(cash, borrows, reserves) */\n      tag_50\n        /* \"InterestRateModel.sol\":3544:3548  cash */\n      dup13\n        /* \"InterestRateModel.sol\":3550:3557  borrows */\n      dup13\n        /* \"InterestRateModel.sol\":3559:3567  reserves */\n      dup13\n        /* \"InterestRateModel.sol\":3528:3543  utilizationRate */\n      tag_18\n        /* \"InterestRateModel.sol\":3528:3568  utilizationRate(cash, borrows, reserves) */\n      jump\t// in\n    tag_50:\n        /* \"InterestRateModel.sol\":3528:3572  utilizationRate(cash, borrows, reserves).mul */\n      tag_33\n      swap1\n        /* \"InterestRateModel.sol\":3528:3584  utilizationRate(cash, borrows, reserves).mul(rateToPool) */\n      swap2\n      swap1\n      0xffffffff\n      and\n      jump\t// in\n    tag_49:\n        /* \"InterestRateModel.sol\":3528:3588  utilizationRate(cash, borrows, reserves).mul(rateToPool).div */\n      tag_34\n      swap1\n        /* \"InterestRateModel.sol\":3528:3594  utilizationRate(cash, borrows, reserves).mul(rateToPool).div(1e18) */\n      swap2\n      swap1\n      0xffffffff\n      and\n      jump\t// in\n    tag_48:\n        /* \"InterestRateModel.sol\":3521:3594  return utilizationRate(cash, borrows, reserves).mul(rateToPool).div(1e18) */\n      swap4\n      pop\n      pop\n      pop\n      pop\n        /* \"InterestRateModel.sol\":3176:3601  function getSupplyRate(uint cash, uint borrows, uint reserves, uint reserveFactorMantissa) public view returns (uint) {... */\n      swap5\n      swap4\n      pop\n      pop\n      pop\n      pop\n      jump\t// out\n        /* \"InterestRateModel.sol\":912:940  uint public baseRatePerBlock */\n    tag_27:\n      sload(0x01)\n      dup2\n      jump\t// out\n        /* \"OpenZeppelin/SafeMath.sol\":2656:3115  function mul(uint256 a, uint256 b) internal pure returns (uint256) {... */\n    tag_33:\n        /* \"OpenZeppelin/SafeMath.sol\":2714:2721  uint256 */\n      0x00\n        /* \"OpenZeppelin/SafeMath.sol\":2960:2961  0 */\n      dup1\n        /* \"OpenZeppelin/SafeMath.sol\":2955:2956  a */\n      dup4\n        /* \"OpenZeppelin/SafeMath.sol\":2955:2961  a == 0 */\n      eq\n        /* \"OpenZeppelin/SafeMath.sol\":2951:2996  if (a == 0) {... */\n      iszero\n      tag_52\n      jumpi\n        /* \"OpenZeppelin/SafeMath.sol\":2984:2985  0 */\n      0x00\n        /* \"OpenZeppelin/SafeMath.sol\":2977:2985  return 0 */\n      swap1\n      pop\n      jump(tag_51)\n        /* \"OpenZeppelin/SafeMath.sol\":2951:2996  if (a == 0) {... */\n    tag_52:\n        /* \"OpenZeppelin/SafeMath.sol\":3006:3015  uint256 c */\n      0x00\n        /* \"OpenZeppelin/SafeMath.sol\":3022:3023  b */\n      dup3\n        /* \"OpenZeppelin/SafeMath.sol\":3018:3019  a */\n      dup5\n        /* \"OpenZeppelin/SafeMath.sol\":3018:3023  a * b */\n      mul\n        /* \"OpenZeppelin/SafeMath.sol\":3006:3023  uint256 c = a * b */\n      swap1\n      pop\n        /* \"OpenZeppelin/SafeMath.sol\":3050:3051  b */\n      dup3\n        /* \"OpenZeppelin/SafeMath.sol\":3045:3046  a */\n      dup5\n        /* \"OpenZeppelin/SafeMath.sol\":3041:3042  c */\n      dup3\n        /* \"OpenZeppelin/SafeMath.sol\":3041:3046  c / a */\n      dup2\n      tag_53\n      jumpi\n      invalid\n    tag_53:\n      div\n        /* \"OpenZeppelin/SafeMath.sol\":3041:3051  c / a == b */\n      eq\n        /* \"OpenZeppelin/SafeMath.sol\":3033:3089  require(c / a == b, \"SafeMath: multiplication overflow\") */\n      tag_54\n      jumpi\n      mload(0x40)\n      0x08c379a000000000000000000000000000000000000000000000000000000000\n      dup2\n      mstore\n      0x04\n      add\n      dup1\n      dup1\n      0x20\n      add\n      dup3\n      dup2\n      sub\n      dup3\n      mstore\n      0x21\n      dup2\n      mstore\n      0x20\n      add\n      dup1\n      data_9113bb53c2876a3805b2c9242029423fc540a728243ce887ab24c82cf119fba3\n      0x21\n      swap2\n      codecopy\n      0x40\n      add\n      swap2\n      pop\n      pop\n      mload(0x40)\n      dup1\n      swap2\n      sub\n      swap1\n      revert\n    tag_54:\n        /* \"OpenZeppelin/SafeMath.sol\":3107:3108  c */\n      dup1\n        /* \"OpenZeppelin/SafeMath.sol\":3100:3108  return c */\n      swap2\n      pop\n      pop\n        /* \"OpenZeppelin/SafeMath.sol\":2656:3115  function mul(uint256 a, uint256 b) internal pure returns (uint256) {... */\n    tag_51:\n      swap3\n      swap2\n      pop\n      pop\n      jump\t// out\n        /* \"OpenZeppelin/SafeMath.sol\":4267:4397  function div(uint256 a, uint256 b) internal pure returns (uint256) {... */\n    tag_34:\n        /* \"OpenZeppelin/SafeMath.sol\":4325:4332  uint256 */\n      0x00\n        /* \"OpenZeppelin/SafeMath.sol\":4351:4390  div(a, b, \"SafeMath: division by zero\") */\n      tag_56\n        /* \"OpenZeppelin/SafeMath.sol\":4355:4356  a */\n      dup4\n        /* \"OpenZeppelin/SafeMath.sol\":4358:4359  b */\n      dup4\n        /* \"OpenZeppelin/SafeMath.sol\":4351:4390  div(a, b, \"SafeMath: division by zero\") */\n      mload(0x40)\n      dup1\n      0x40\n      add\n      0x40\n      mstore\n      dup1\n      0x1a\n      dup2\n      mstore\n      0x20\n      add\n      0x536166654d6174683a206469766973696f6e206279207a65726f000000000000\n      dup2\n      mstore\n      pop\n        /* \"OpenZeppelin/SafeMath.sol\":4351:4354  div */\n      tag_57\n        /* \"OpenZeppelin/SafeMath.sol\":4351:4390  div(a, b, \"SafeMath: division by zero\") */\n      jump\t// in\n    tag_56:\n        /* \"OpenZeppelin/SafeMath.sol\":4344:4390  return div(a, b, \"SafeMath: division by zero\") */\n      swap1\n      pop\n        /* \"OpenZeppelin/SafeMath.sol\":4267:4397  function div(uint256 a, uint256 b) internal pure returns (uint256) {... */\n      swap3\n      swap2\n      pop\n      pop\n      jump\t// out\n        /* \"OpenZeppelin/SafeMath.sol\":959:1135  function add(uint256 a, uint256 b) internal pure returns (uint256) {... */\n    tag_35:\n        /* \"OpenZeppelin/SafeMath.sol\":1017:1024  uint256 */\n      0x00\n        /* \"OpenZeppelin/SafeMath.sol\":1036:1045  uint256 c */\n      dup1\n        /* \"OpenZeppelin/SafeMath.sol\":1052:1053  b */\n      dup3\n        /* \"OpenZeppelin/SafeMath.sol\":1048:1049  a */\n      dup5\n        /* \"OpenZeppelin/SafeMath.sol\":1048:1053  a + b */\n      add\n        /* \"OpenZeppelin/SafeMath.sol\":1036:1053  uint256 c = a + b */\n      swap1\n      pop\n        /* \"OpenZeppelin/SafeMath.sol\":1076:1077  a */\n      dup4\n        /* \"OpenZeppelin/SafeMath.sol\":1071:1072  c */\n      dup2\n        /* \"OpenZeppelin/SafeMath.sol\":1071:1077  c >= a */\n      lt\n      iszero\n        /* \"OpenZeppelin/SafeMath.sol\":1063:1109  require(c >= a, \"SafeMath: addition overflow\") */\n      tag_59\n      jumpi\n      mload(0x40)\n      0x08c379a000000000000000000000000000000000000000000000000000000000\n      dup2\n      mstore\n      0x04\n      add\n      dup1\n      dup1\n      0x20\n      add\n      dup3\n      dup2\n      sub\n      dup3\n      mstore\n      0x1b\n      dup2\n      mstore\n      0x20\n      add\n      dup1\n      0x536166654d6174683a206164646974696f6e206f766572666c6f770000000000\n      dup2\n      mstore\n      pop\n      0x20\n      add\n      swap2\n      pop\n      pop\n      mload(0x40)\n      dup1\n      swap2\n      sub\n      swap1\n      revert\n    tag_59:\n        /* \"OpenZeppelin/SafeMath.sol\":1127:1128  c */\n      dup1\n        /* \"OpenZeppelin/SafeMath.sol\":1120:1128  return c */\n      swap2\n      pop\n      pop\n        /* \"OpenZeppelin/SafeMath.sol\":959:1135  function add(uint256 a, uint256 b) internal pure returns (uint256) {... */\n      swap3\n      swap2\n      pop\n      pop\n      jump\t// out\n        /* \"OpenZeppelin/SafeMath.sol\":1822:1957  function sub(uint256 a, uint256 b) internal pure returns (uint256) {... */\n    tag_41:\n        /* \"OpenZeppelin/SafeMath.sol\":1880:1887  uint256 */\n      0x00\n        /* \"OpenZeppelin/SafeMath.sol\":1906:1950  sub(a, b, \"SafeMath: subtraction underflow\") */\n      tag_61\n        /* \"OpenZeppelin/SafeMath.sol\":1910:1911  a */\n      dup4\n        /* \"OpenZeppelin/SafeMath.sol\":1913:1914  b */\n      dup4\n        /* \"OpenZeppelin/SafeMath.sol\":1906:1950  sub(a, b, \"SafeMath: subtraction underflow\") */\n      mload(0x40)\n      dup1\n      0x40\n      add\n      0x40\n      mstore\n      dup1\n      0x1f\n      dup2\n      mstore\n      0x20\n      add\n      0x536166654d6174683a207375627472616374696f6e20756e646572666c6f7700\n      dup2\n      mstore\n      pop\n        /* \"OpenZeppelin/SafeMath.sol\":1906:1909  sub */\n      tag_62\n        /* \"OpenZeppelin/SafeMath.sol\":1906:1950  sub(a, b, \"SafeMath: subtraction underflow\") */\n      jump\t// in\n    tag_61:\n        /* \"OpenZeppelin/SafeMath.sol\":1899:1950  return sub(a, b, \"SafeMath: subtraction underflow\") */\n      swap1\n      pop\n        /* \"OpenZeppelin/SafeMath.sol\":1822:1957  function sub(uint256 a, uint256 b) internal pure returns (uint256) {... */\n      swap3\n      swap2\n      pop\n      pop\n      jump\t// out\n        /* \"OpenZeppelin/SafeMath.sol\":4872:5210  function div(uint256 a, uint256 b, string memory errorMessage) internal pure returns (uint256) {... */\n    tag_57:\n        /* \"OpenZeppelin/SafeMath.sol\":4958:4965  uint256 */\n      0x00\n        /* \"OpenZeppelin/SafeMath.sol\":5055:5056  0 */\n      dup1\n        /* \"OpenZeppelin/SafeMath.sol\":5051:5052  b */\n      dup4\n        /* \"OpenZeppelin/SafeMath.sol\":5051:5056  b > 0 */\n      gt\n        /* \"OpenZeppelin/SafeMath.sol\":5058:5070  errorMessage */\n      dup3\n        /* \"OpenZeppelin/SafeMath.sol\":5043:5071  require(b > 0, errorMessage) */\n      swap1\n      tag_64\n      jumpi\n      mload(0x40)\n      0x08c379a000000000000000000000000000000000000000000000000000000000\n      dup2\n      mstore\n      0x04\n      add\n      dup1\n      dup1\n      0x20\n      add\n      dup3\n      dup2\n      sub\n      dup3\n      mstore\n      dup4\n      dup2\n      dup2\n      mload\n      dup2\n      mstore\n      0x20\n      add\n      swap2\n      pop\n      dup1\n      mload\n      swap1\n      0x20\n      add\n      swap1\n      dup1\n      dup4\n      dup4\n        /* \"--CODEGEN--\":23:24   */\n      0x00\n        /* \"--CODEGEN--\":8:108   */\n    tag_65:\n        /* \"--CODEGEN--\":33:36   */\n      dup4\n        /* \"--CODEGEN--\":30:31   */\n      dup2\n        /* \"--CODEGEN--\":27:37   */\n      lt\n        /* \"--CODEGEN--\":8:108   */\n      iszero\n      tag_67\n      jumpi\n        /* \"--CODEGEN--\":99:100   */\n      dup1\n        /* \"--CODEGEN--\":94:97   */\n      dup3\n        /* \"--CODEGEN--\":90:101   */\n      add\n        /* \"--CODEGEN--\":84:102   */\n      mload\n        /* \"--CODEGEN--\":80:81   */\n      dup2\n        /* \"--CODEGEN--\":75:78   */\n      dup5\n        /* \"--CODEGEN--\":71:82   */\n      add\n        /* \"--CODEGEN--\":64:103   */\n      mstore\n        /* \"--CODEGEN--\":52:54   */\n      0x20\n        /* \"--CODEGEN--\":49:50   */\n      dup2\n        /* \"--CODEGEN--\":45:55   */\n      add\n        /* \"--CODEGEN--\":40:55   */\n      swap1\n      pop\n        /* \"--CODEGEN--\":8:108   */\n      jump(tag_65)\n    tag_67:\n        /* \"--CODEGEN--\":12:26   */\n      pop\n        /* \"OpenZeppelin/SafeMath.sol\":5043:5071  require(b > 0, errorMessage) */\n      pop\n      pop\n      pop\n      swap1\n      pop\n      swap1\n      dup2\n      add\n      swap1\n      0x1f\n      and\n      dup1\n      iszero\n      tag_68\n      jumpi\n      dup1\n      dup3\n      sub\n      dup1\n      mload\n      0x01\n      dup4\n      0x20\n      sub\n      0x0100\n      exp\n      sub\n      not\n      and\n      dup2\n      mstore\n      0x20\n      add\n      swap2\n      pop\n    tag_68:\n      pop\n      swap3\n      pop\n      pop\n      pop\n      mload(0x40)\n      dup1\n      swap2\n      sub\n      swap1\n      revert\n    tag_64:\n      pop\n        /* \"OpenZeppelin/SafeMath.sol\":5081:5090  uint256 c */\n      0x00\n        /* \"OpenZeppelin/SafeMath.sol\":5097:5098  b */\n      dup4\n        /* \"OpenZeppelin/SafeMath.sol\":5093:5094  a */\n      dup6\n        /* \"OpenZeppelin/SafeMath.sol\":5093:5098  a / b */\n      dup2\n      tag_69\n      jumpi\n      invalid\n    tag_69:\n      div\n        /* \"OpenZeppelin/SafeMath.sol\":5081:5098  uint256 c = a / b */\n      swap1\n      pop\n        /* \"OpenZeppelin/SafeMath.sol\":5202:5203  c */\n      dup1\n        /* \"OpenZeppelin/SafeMath.sol\":5195:5203  return c */\n      swap2\n      pop\n      pop\n        /* \"OpenZeppelin/SafeMath.sol\":4872:5210  function div(uint256 a, uint256 b, string memory errorMessage) internal pure returns (uint256) {... */\n      swap4\n      swap3\n      pop\n      pop\n      pop\n      jump\t// out\n        /* \"OpenZeppelin/SafeMath.sol\":2236:2423  function sub(uint256 a, uint256 b, string memory errorMessage) internal pure returns (uint256) {... */\n    tag_62:\n        /* \"OpenZeppelin/SafeMath.sol\":2322:2329  uint256 */\n      0x00\n        /* \"OpenZeppelin/SafeMath.sol\":2354:2355  a */\n      dup4\n        /* \"OpenZeppelin/SafeMath.sol\":2349:2350  b */\n      dup4\n        /* \"OpenZeppelin/SafeMath.sol\":2349:2355  b <= a */\n      gt\n      iszero\n        /* \"OpenZeppelin/SafeMath.sol\":2357:2369  errorMessage */\n      dup3\n        /* \"OpenZeppelin/SafeMath.sol\":2341:2370  require(b <= a, errorMessage) */\n      swap1\n      tag_71\n      jumpi\n      mload(0x40)\n      0x08c379a000000000000000000000000000000000000000000000000000000000\n      dup2\n      mstore\n      0x04\n      add\n      dup1\n      dup1\n      0x20\n      add\n      dup3\n      dup2\n      sub\n      dup3\n      mstore\n      dup4\n      dup2\n      dup2\n      mload\n      dup2\n      mstore\n      0x20\n      add\n      swap2\n      pop\n      dup1\n      mload\n      swap1\n      0x20\n      add\n      swap1\n      dup1\n      dup4\n      dup4\n        /* \"--CODEGEN--\":23:24   */\n      0x00\n        /* \"--CODEGEN--\":8:108   */\n    tag_72:\n        /* \"--CODEGEN--\":33:36   */\n      dup4\n        /* \"--CODEGEN--\":30:31   */\n      dup2\n        /* \"--CODEGEN--\":27:37   */\n      lt\n        /* \"--CODEGEN--\":8:108   */\n      iszero\n      tag_74\n      jumpi\n        /* \"--CODEGEN--\":99:100   */\n      dup1\n        /* \"--CODEGEN--\":94:97   */\n      dup3\n        /* \"--CODEGEN--\":90:101   */\n      add\n        /* \"--CODEGEN--\":84:102   */\n      mload\n        /* \"--CODEGEN--\":80:81   */\n      dup2\n        /* \"--CODEGEN--\":75:78   */\n      dup5\n        /* \"--CODEGEN--\":71:82   */\n      add\n        /* \"--CODEGEN--\":64:103   */\n      mstore\n        /* \"--CODEGEN--\":52:54   */\n      0x20\n        /* \"--CODEGEN--\":49:50   */\n      dup2\n        /* \"--CODEGEN--\":45:55   */\n      add\n        /* \"--CODEGEN--\":40:55   */\n      swap1\n      pop\n        /* \"--CODEGEN--\":8:108   */\n      jump(tag_72)\n    tag_74:\n        /* \"--CODEGEN--\":12:26   */\n      pop\n        /* \"OpenZeppelin/SafeMath.sol\":2341:2370  require(b <= a, errorMessage) */\n      pop\n      pop\n      pop\n      swap1\n      pop\n      swap1\n      dup2\n      add\n      swap1\n      0x1f\n      and\n      dup1\n      iszero\n      tag_75\n      jumpi\n      dup1\n      dup3\n      sub\n      dup1\n      mload\n      0x01\n      dup4\n      0x20\n      sub\n      0x0100\n      exp\n      sub\n      not\n      and\n      dup2\n      mstore\n      0x20\n      add\n      swap2\n      pop\n    tag_75:\n      pop\n      swap3\n      pop\n      pop\n      pop\n      mload(0x40)\n      dup1\n      swap2\n      sub\n      swap1\n      revert\n    tag_71:\n      pop\n        /* \"OpenZeppelin/SafeMath.sol\":2380:2389  uint256 c */\n      0x00\n        /* \"OpenZeppelin/SafeMath.sol\":2396:2397  b */\n      dup4\n        /* \"OpenZeppelin/SafeMath.sol\":2392:2393  a */\n      dup6\n        /* \"OpenZeppelin/SafeMath.sol\":2392:2397  a - b */\n      sub\n        /* \"OpenZeppelin/SafeMath.sol\":2380:2397  uint256 c = a - b */\n      swap1\n      pop\n        /* \"OpenZeppelin/SafeMath.sol\":2415:2416  c */\n      dup1\n        /* \"OpenZeppelin/SafeMath.sol\":2408:2416  return c */\n      swap2\n      pop\n      pop\n        /* \"OpenZeppelin/SafeMath.sol\":2236:2423  function sub(uint256 a, uint256 b, string memory errorMessage) internal pure returns (uint256) {... */\n      swap4\n      swap3\n      pop\n      pop\n      pop\n      jump\t// out\n    stop\n    data_9113bb53c2876a3805b2c9242029423fc540a728243ce887ab24c82cf119fba3 536166654d6174683a206d756c7469706c69636174696f6e206f766572666c6f77\n\n    auxdata: 0xa265627a7a72315820fc4ead72455cd373fca3e33a690469120b74f06fb9966fcf4538a008954fa0c364736f6c63430005110032\n}\n",
				"bytecode": {
					"linkReferences": {},
					"object": "608060405234801561001057600080fd5b5060405161090c38038061090c8339818101604052604081101561003357600080fd5b81019080805190602001909291908051906020019092919050505061006862201480836100d860201b6104171790919060201c565b60018190555061008862201480826100d860201b6104171790919060201c565b6000819055507ff35fa19c15e9ba782633a5df62a98b20217151addc68e3ff2cd623a48d37ec27600154600054604051808381526020018281526020019250505060405180910390a150506101ee565b600061012083836040518060400160405280601a81526020017f536166654d6174683a206469766973696f6e206279207a65726f00000000000081525061012860201b60201c565b905092915050565b600080831182906101d4576040517f08c379a00000000000000000000000000000000000000000000000000000000081526004018080602001828103825283818151815260200191508051906020019080838360005b8381101561019957808201518184015260208101905061017e565b50505050905090810190601f1680156101c65780820380516001836020036101000a031916815260200191505b509250505060405180910390fd5b5060008385816101e057fe5b049050809150509392505050565b61070f806101fd6000396000f3fe608060405234801561001057600080fd5b506004361061007d5760003560e01c80638726bb891161005b5780638726bb8914610150578063a385fb961461016e578063b81688161461018c578063f14039de146101ec5761007d565b806315f24053146100825780632191f92a146100d85780636e71e2d8146100fa575b600080fd5b6100c26004803603606081101561009857600080fd5b8101908080359060200190929190803590602001909291908035906020019092919050505061020a565b6040518082815260200191505060405180910390f35b6100e0610267565b604051808215151515815260200191505060405180910390f35b61013a6004803603606081101561011057600080fd5b8101908080359060200190929190803590602001909291908035906020019092919050505061026c565b6040518082815260200191505060405180910390f35b6101586102da565b6040518082815260200191505060405180910390f35b6101766102e0565b6040518082815260200191505060405180910390f35b6101d6600480360360808110156101a257600080fd5b81019080803590602001909291908035906020019092919080359060200190929190803590602001909291905050506102e7565b6040518082815260200191505060405180910390f35b6101f461038b565b6040518082815260200191505060405180910390f35b60008061021885858561026c565b905061025d60015461024f670de0b6b3a76400006102416000548661039190919063ffffffff16565b61041790919063ffffffff16565b61046190919063ffffffff16565b9150509392505050565b600181565b60008083141561027f57600090506102d3565b6102d06102a783610299868861046190919063ffffffff16565b6104e990919063ffffffff16565b6102c2670de0b6b3a76400008661039190919063ffffffff16565b61041790919063ffffffff16565b90505b9392505050565b60005481565b6220148081565b60008061030583670de0b6b3a76400006104e990919063ffffffff16565b9050600061031487878761020a565b90506000610345670de0b6b3a7640000610337858561039190919063ffffffff16565b61041790919063ffffffff16565b905061037e670de0b6b3a7640000610370836103628c8c8c61026c565b61039190919063ffffffff16565b61041790919063ffffffff16565b9350505050949350505050565b60015481565b6000808314156103a45760009050610411565b60008284029050828482816103b557fe5b041461040c576040517f08c379a00000000000000000000000000000000000000000000000000000000081526004018080602001828103825260218152602001806106ba6021913960400191505060405180910390fd5b809150505b92915050565b600061045983836040518060400160405280601a81526020017f536166654d6174683a206469766973696f6e206279207a65726f000000000000815250610533565b905092915050565b6000808284019050838110156104df576040517f08c379a000000000000000000000000000000000000000000000000000000000815260040180806020018281038252601b8152602001807f536166654d6174683a206164646974696f6e206f766572666c6f77000000000081525060200191505060405180910390fd5b8091505092915050565b600061052b83836040518060400160405280601f81526020017f536166654d6174683a207375627472616374696f6e20756e646572666c6f77008152506105f9565b905092915050565b600080831182906105df576040517f08c379a00000000000000000000000000000000000000000000000000000000081526004018080602001828103825283818151815260200191508051906020019080838360005b838110156105a4578082015181840152602081019050610589565b50505050905090810190601f1680156105d15780820380516001836020036101000a031916815260200191505b509250505060405180910390fd5b5060008385816105eb57fe5b049050809150509392505050565b60008383111582906106a6576040517f08c379a00000000000000000000000000000000000000000000000000000000081526004018080602001828103825283818151815260200191508051906020019080838360005b8381101561066b578082015181840152602081019050610650565b50505050905090810190601f1680156106985780820380516001836020036101000a031916815260200191505b509250505060405180910390fd5b506000838503905080915050939250505056fe536166654d6174683a206d756c7469706c69636174696f6e206f766572666c6f77a265627a7a72315820fc4ead72455cd373fca3e33a690469120b74f06fb9966fcf4538a008954fa0c364736f6c63430005110032",
					"opcodes": "PUSH1 0x80 PUSH1 0x40 MSTORE CALLVALUE DUP1 ISZERO PUSH2 0x10 JUMPI PUSH1 0x0 DUP1 REVERT JUMPDEST POP PUSH1 0x40 MLOAD PUSH2 0x90C CODESIZE SUB DUP1 PUSH2 0x90C DUP4 CODECOPY DUP2 DUP2 ADD PUSH1 0x40 MSTORE PUSH1 0x40 DUP2 LT ISZERO PUSH2 0x33 JUMPI PUSH1 0x0 DUP1 REVERT JUMPDEST DUP2 ADD SWAP1 DUP1 DUP1 MLOAD SWAP1 PUSH1 0x20 ADD SWAP1 SWAP3 SWAP2 SWAP1 DUP1 MLOAD SWAP1 PUSH1 0x20 ADD SWAP1 SWAP3 SWAP2 SWAP1 POP POP POP PUSH2 0x68 PUSH3 0x201480 DUP4 PUSH2 0xD8 PUSH1 0x20 SHL PUSH2 0x417 OR SWAP1 SWAP2 SWAP1 PUSH1 0x20 SHR JUMP JUMPDEST PUSH1 0x1 DUP2 SWAP1 SSTORE POP PUSH2 0x88 PUSH3 0x201480 DUP3 PUSH2 0xD8 PUSH1 0x20 SHL PUSH2 0x417 OR SWAP1 SWAP2 SWAP1 PUSH1 0x20 SHR JUMP JUMPDEST PUSH1 0x0 DUP2 SWAP1 SSTORE POP PUSH32 0xF35FA19C15E9BA782633A5DF62A98B20217151ADDC68E3FF2CD623A48D37EC27 PUSH1 0x1 SLOAD PUSH1 0x0 SLOAD PUSH1 0x40 MLOAD DUP1 DUP4 DUP2 MSTORE PUSH1 0x20 ADD DUP3 DUP2 MSTORE PUSH1 0x20 ADD SWAP3 POP POP POP PUSH1 0x40 MLOAD DUP1 SWAP2 SUB SWAP1 LOG1 POP POP PUSH2 0x1EE JUMP JUMPDEST PUSH1 0x0 PUSH2 0x120 DUP4 DUP4 PUSH1 0x40 MLOAD DUP1 PUSH1 0x40 ADD PUSH1 0x40 MSTORE DUP1 PUSH1 0x1A DUP2 MSTORE PUSH1 0x20 ADD PUSH32 0x536166654D6174683A206469766973696F6E206279207A65726F000000000000 DUP2 MSTORE POP PUSH2 0x128 PUSH1 0x20 SHL PUSH1 0x20 SHR JUMP JUMPDEST SWAP1 POP SWAP3 SWAP2 POP POP JUMP JUMPDEST PUSH1 0x0 DUP1 DUP4 GT DUP3 SWAP1 PUSH2 0x1D4 JUMPI PUSH1 0x40 MLOAD PUSH32 0x8C379A000000000000000000000000000000000000000000000000000000000 DUP2 MSTORE PUSH1 0x4 ADD DUP1 DUP1 PUSH1 0x20 ADD DUP3 DUP2 SUB DUP3 MSTORE DUP4 DUP2 DUP2 MLOAD DUP2 MSTORE PUSH1 0x20 ADD SWAP2 POP DUP1 MLOAD SWAP1 PUSH1 0x20 ADD SWAP1 DUP1 DUP4 DUP4 PUSH1 0x0 JUMPDEST DUP4 DUP2 LT ISZERO PUSH2 0x199 JUMPI DUP1 DUP3 ADD MLOAD DUP2 DUP5 ADD MSTORE PUSH1 0x20 DUP2 ADD SWAP1 POP PUSH2 0x17E JUMP JUMPDEST POP POP POP POP SWAP1 POP SWAP1 DUP2 ADD SWAP1 PUSH1 0x1F AND DUP1 ISZERO PUSH2 0x1C6 JUMPI DUP1 DUP3 SUB DUP1 MLOAD PUSH1 0x1 DUP4 PUSH1 0x20 SUB PUSH2 0x100 EXP SUB NOT AND DUP2 MSTORE PUSH1 0x20 ADD SWAP2 POP JUMPDEST POP SWAP3 POP POP POP PUSH1 0x40 MLOAD DUP1 SWAP2 SUB SWAP1 REVERT JUMPDEST POP PUSH1 0x0 DUP4 DUP6 DUP2 PUSH2 0x1E0 JUMPI INVALID JUMPDEST DIV SWAP1 POP DUP1 SWAP2 POP POP SWAP4 SWAP3 POP POP POP JUMP JUMPDEST PUSH2 0x70F DUP1 PUSH2 0x1FD PUSH1 0x0 CODECOPY PUSH1 0x0 RETURN INVALID PUSH1 0x80 PUSH1 0x40 MSTORE CALLVALUE DUP1 ISZERO PUSH2 0x10 JUMPI PUSH1 0x0 DUP1 REVERT JUMPDEST POP PUSH1 0x4 CALLDATASIZE LT PUSH2 0x7D JUMPI PUSH1 0x0 CALLDATALOAD PUSH1 0xE0 SHR DUP1 PUSH4 0x8726BB89 GT PUSH2 0x5B JUMPI DUP1 PUSH4 0x8726BB89 EQ PUSH2 0x150 JUMPI DUP1 PUSH4 0xA385FB96 EQ PUSH2 0x16E JUMPI DUP1 PUSH4 0xB8168816 EQ PUSH2 0x18C JUMPI DUP1 PUSH4 0xF14039DE EQ PUSH2 0x1EC JUMPI PUSH2 0x7D JUMP JUMPDEST DUP1 PUSH4 0x15F24053 EQ PUSH2 0x82 JUMPI DUP1 PUSH4 0x2191F92A EQ PUSH2 0xD8 JUMPI DUP1 PUSH4 0x6E71E2D8 EQ PUSH2 0xFA JUMPI JUMPDEST PUSH1 0x0 DUP1 REVERT JUMPDEST PUSH2 0xC2 PUSH1 0x4 DUP1 CALLDATASIZE SUB PUSH1 0x60 DUP2 LT ISZERO PUSH2 0x98 JUMPI PUSH1 0x0 DUP1 REVERT JUMPDEST DUP2 ADD SWAP1 DUP1 DUP1 CALLDATALOAD SWAP1 PUSH1 0x20 ADD SWAP1 SWAP3 SWAP2 SWAP1 DUP1 CALLDATALOAD SWAP1 PUSH1 0x20 ADD SWAP1 SWAP3 SWAP2 SWAP1 DUP1 CALLDATALOAD SWAP1 PUSH1 0x20 ADD SWAP1 SWAP3 SWAP2 SWAP1 POP POP POP PUSH2 0x20A JUMP JUMPDEST PUSH1 0x40 MLOAD DUP1 DUP3 DUP2 MSTORE PUSH1 0x20 ADD SWAP2 POP POP PUSH1 0x40 MLOAD DUP1 SWAP2 SUB SWAP1 RETURN JUMPDEST PUSH2 0xE0 PUSH2 0x267 JUMP JUMPDEST PUSH1 0x40 MLOAD DUP1 DUP3 ISZERO ISZERO ISZERO ISZERO DUP2 MSTORE PUSH1 0x20 ADD SWAP2 POP POP PUSH1 0x40 MLOAD DUP1 SWAP2 SUB SWAP1 RETURN JUMPDEST PUSH2 0x13A PUSH1 0x4 DUP1 CALLDATASIZE SUB PUSH1 0x60 DUP2 LT ISZERO PUSH2 0x110 JUMPI PUSH1 0x0 DUP1 REVERT JUMPDEST DUP2 ADD SWAP1 DUP1 DUP1 CALLDATALOAD SWAP1 PUSH1 0x20 ADD SWAP1 SWAP3 SWAP2 SWAP1 DUP1 CALLDATALOAD SWAP1 PUSH1 0x20 ADD SWAP1 SWAP3 SWAP2 SWAP1 DUP1 CALLDATALOAD SWAP1 PUSH1 0x20 ADD SWAP1 SWAP3 SWAP2 SWAP1 POP POP POP PUSH2 0x26C JUMP JUMPDEST PUSH1 0x40 MLOAD DUP1 DUP3 DUP2 MSTORE PUSH1 0x20 ADD SWAP2 POP POP PUSH1 0x40 MLOAD DUP1 SWAP2 SUB SWAP1 RETURN JUMPDEST PUSH2 0x158 PUSH2 0x2DA JUMP JUMPDEST PUSH1 0x40 MLOAD DUP1 DUP3 DUP2 MSTORE PUSH1 0x20 ADD SWAP2 POP POP PUSH1 0x40 MLOAD DUP1 SWAP2 SUB SWAP1 RETURN JUMPDEST PUSH2 0x176 PUSH2 0x2E0 JUMP JUMPDEST PUSH1 0x40 MLOAD DUP1 DUP3 DUP2 MSTORE PUSH1 0x20 ADD SWAP2 POP POP PUSH1 0x40 MLOAD DUP1 SWAP2 SUB SWAP1 RETURN JUMPDEST PUSH2 0x1D6 PUSH1 0x4 DUP1 CALLDATASIZE SUB PUSH1 0x80 DUP2 LT ISZERO PUSH2 0x1A2 JUMPI PUSH1 0x0 DUP1 REVERT JUMPDEST DUP2 ADD SWAP1 DUP1 DUP1 CALLDATALOAD SWAP1 PUSH1 0x20 ADD SWAP1 SWAP3 SWAP2 SWAP1 DUP1 CALLDATALOAD SWAP1 PUSH1 0x20 ADD SWAP1 SWAP3 SWAP2 SWAP1 DUP1 CALLDATALOAD SWAP1 PUSH1 0x20 ADD SWAP1 SWAP3 SWAP2 SWAP1 DUP1 CALLDATALOAD SWAP1 PUSH1 0x20 ADD SWAP1 SWAP3 SWAP2 SWAP1 POP POP POP PUSH2 0x2E7 JUMP JUMPDEST PUSH1 0x40 MLOAD DUP1 DUP3 DUP2 MSTORE PUSH1 0x20 ADD SWAP2 POP POP PUSH1 0x40 MLOAD DUP1 SWAP2 SUB SWAP1 RETURN JUMPDEST PUSH2 0x1F4 PUSH2 0x38B JUMP JUMPDEST PUSH1 0x40 MLOAD DUP1 DUP3 DUP2 MSTORE PUSH1 0x20 ADD SWAP2 POP POP PUSH1 0x40 MLOAD DUP1 SWAP2 SUB SWAP1 RETURN JUMPDEST PUSH1 0x0 DUP1 PUSH2 0x218 DUP6 DUP6 DUP6 PUSH2 0x26C JUMP JUMPDEST SWAP1 POP PUSH2 0x25D PUSH1 0x1 SLOAD PUSH2 0x24F PUSH8 0xDE0B6B3A7640000 PUSH2 0x241 PUSH1 0x0 SLOAD DUP7 PUSH2 0x391 SWAP1 SWAP2 SWAP1 PUSH4 0xFFFFFFFF AND JUMP JUMPDEST PUSH2 0x417 SWAP1 SWAP2 SWAP1 PUSH4 0xFFFFFFFF AND JUMP JUMPDEST PUSH2 0x461 SWAP1 SWAP2 SWAP1 PUSH4 0xFFFFFFFF AND JUMP JUMPDEST SWAP2 POP POP SWAP4 SWAP3 POP POP POP JUMP JUMPDEST PUSH1 0x1 DUP2 JUMP JUMPDEST PUSH1 0x0 DUP1 DUP4 EQ ISZERO PUSH2 0x27F JUMPI PUSH1 0x0 SWAP1 POP PUSH2 0x2D3 JUMP JUMPDEST PUSH2 0x2D0 PUSH2 0x2A7 DUP4 PUSH2 0x299 DUP7 DUP9 PUSH2 0x461 SWAP1 SWAP2 SWAP1 PUSH4 0xFFFFFFFF AND JUMP JUMPDEST PUSH2 0x4E9 SWAP1 SWAP2 SWAP1 PUSH4 0xFFFFFFFF AND JUMP JUMPDEST PUSH2 0x2C2 PUSH8 0xDE0B6B3A7640000 DUP7 PUSH2 0x391 SWAP1 SWAP2 SWAP1 PUSH4 0xFFFFFFFF AND JUMP JUMPDEST PUSH2 0x417 SWAP1 SWAP2 SWAP1 PUSH4 0xFFFFFFFF AND JUMP JUMPDEST SWAP1 POP JUMPDEST SWAP4 SWAP3 POP POP POP JUMP JUMPDEST PUSH1 0x0 SLOAD DUP2 JUMP JUMPDEST PUSH3 0x201480 DUP2 JUMP JUMPDEST PUSH1 0x0 DUP1 PUSH2 0x305 DUP4 PUSH8 0xDE0B6B3A7640000 PUSH2 0x4E9 SWAP1 SWAP2 SWAP1 PUSH4 0xFFFFFFFF AND JUMP JUMPDEST SWAP1 POP PUSH1 0x0 PUSH2 0x314 DUP8 DUP8 DUP8 PUSH2 0x20A JUMP JUMPDEST SWAP1 POP PUSH1 0x0 PUSH2 0x345 PUSH8 0xDE0B6B3A7640000 PUSH2 0x337 DUP6 DUP6 PUSH2 0x391 SWAP1 SWAP2 SWAP1 PUSH4 0xFFFFFFFF AND JUMP JUMPDEST PUSH2 0x417 SWAP1 SWAP2 SWAP1 PUSH4 0xFFFFFFFF AND JUMP JUMPDEST SWAP1 POP PUSH2 0x37E PUSH8 0xDE0B6B3A7640000 PUSH2 0x370 DUP4 PUSH2 0x362 DUP13 DUP13 DUP13 PUSH2 0x26C JUMP JUMPDEST PUSH2 0x391 SWAP1 SWAP2 SWAP1 PUSH4 0xFFFFFFFF AND JUMP JUMPDEST PUSH2 0x417 SWAP1 SWAP2 SWAP1 PUSH4 0xFFFFFFFF AND JUMP JUMPDEST SWAP4 POP POP POP POP SWAP5 SWAP4 POP POP POP POP JUMP JUMPDEST PUSH1 0x1 SLOAD DUP2 JUMP JUMPDEST PUSH1 0x0 DUP1 DUP4 EQ ISZERO PUSH2 0x3A4 JUMPI PUSH1 0x0 SWAP1 POP PUSH2 0x411 JUMP JUMPDEST PUSH1 0x0 DUP3 DUP5 MUL SWAP1 POP DUP3 DUP5 DUP3 DUP2 PUSH2 0x3B5 JUMPI INVALID JUMPDEST DIV EQ PUSH2 0x40C JUMPI PUSH1 0x40 MLOAD PUSH32 0x8C379A000000000000000000000000000000000000000000000000000000000 DUP2 MSTORE PUSH1 0x4 ADD DUP1 DUP1 PUSH1 0x20 ADD DUP3 DUP2 SUB DUP3 MSTORE PUSH1 0x21 DUP2 MSTORE PUSH1 0x20 ADD DUP1 PUSH2 0x6BA PUSH1 0x21 SWAP2 CODECOPY PUSH1 0x40 ADD SWAP2 POP POP PUSH1 0x40 MLOAD DUP1 SWAP2 SUB SWAP1 REVERT JUMPDEST DUP1 SWAP2 POP POP JUMPDEST SWAP3 SWAP2 POP POP JUMP JUMPDEST PUSH1 0x0 PUSH2 0x459 DUP4 DUP4 PUSH1 0x40 MLOAD DUP1 PUSH1 0x40 ADD PUSH1 0x40 MSTORE DUP1 PUSH1 0x1A DUP2 MSTORE PUSH1 0x20 ADD PUSH32 0x536166654D6174683A206469766973696F6E206279207A65726F000000000000 DUP2 MSTORE POP PUSH2 0x533 JUMP JUMPDEST SWAP1 POP SWAP3 SWAP2 POP POP JUMP JUMPDEST PUSH1 0x0 DUP1 DUP3 DUP5 ADD SWAP1 POP DUP4 DUP2 LT ISZERO PUSH2 0x4DF JUMPI PUSH1 0x40 MLOAD PUSH32 0x8C379A000000000000000000000000000000000000000000000000000000000 DUP2 MSTORE PUSH1 0x4 ADD DUP1 DUP1 PUSH1 0x20 ADD DUP3 DUP2 SUB DUP3 MSTORE PUSH1 0x1B DUP2 MSTORE PUSH1 0x20 ADD DUP1 PUSH32 0x536166654D6174683A206164646974696F6E206F766572666C6F770000000000 DUP2 MSTORE POP PUSH1 0x20 ADD SWAP2 POP POP PUSH1 0x40 MLOAD DUP1 SWAP2 SUB SWAP1 REVERT JUMPDEST DUP1 SWAP2 POP POP SWAP3 SWAP2 POP POP JUMP JUMPDEST PUSH1 0x0 PUSH2 0x52B DUP4 DUP4 PUSH1 0x40 MLOAD DUP1 PUSH1 0x40 ADD PUSH1 0x40 MSTORE DUP1 PUSH1 0x1F DUP2 MSTORE PUSH1 0x20 ADD PUSH32 0x536166654D6174683A207375627472616374696F6E20756E646572666C6F7700 DUP2 MSTORE POP PUSH2 0x5F9 JUMP JUMPDEST SWAP1 POP SWAP3 SWAP2 POP POP JUMP JUMPDEST PUSH1 0x0 DUP1 DUP4 GT DUP3 SWAP1 PUSH2 0x5DF JUMPI PUSH1 0x40 MLOAD PUSH32 0x8C379A000000000000000000000000000000000000000000000000000000000 DUP2 MSTORE PUSH1 0x4 ADD DUP1 DUP1 PUSH1 0x20 ADD DUP3 DUP2 SUB DUP3 MSTORE DUP4 DUP2 DUP2 MLOAD DUP2 MSTORE PUSH1 0x20 ADD SWAP2 POP DUP1 MLOAD SWAP1 PUSH1 0x20 ADD SWAP1 DUP1 DUP4 DUP4 PUSH1 0x0 JUMPDEST DUP4 DUP2 LT ISZERO PUSH2 0x5A4 JUMPI DUP1 DUP3 ADD MLOAD DUP2 DUP5 ADD MSTORE PUSH1 0x20 DUP2 ADD SWAP1 POP PUSH2 0x589 JUMP JUMPDEST POP POP POP POP SWAP1 POP SWAP1 DUP2 ADD SWAP1 PUSH1 0x1F AND DUP1 ISZERO PUSH2 0x5D1 JUMPI DUP1 DUP3 SUB DUP1 MLOAD PUSH1 0x1 DUP4 PUSH1 0x20 SUB PUSH2 0x100 EXP SUB NOT AND DUP2 MSTORE PUSH1 0x20 ADD SWAP2 POP JUMPDEST POP SWAP3 POP POP POP PUSH1 0x40 MLOAD DUP1 SWAP2 SUB SWAP1 REVERT JUMPDEST POP PUSH1 0x0 DUP4 DUP6 DUP2 PUSH2 0x5EB JUMPI INVALID JUMPDEST DIV SWAP1 POP DUP1 SWAP2 POP POP SWAP4 SWAP3 POP POP POP JUMP JUMPDEST PUSH1 0x0 DUP4 DUP4 GT ISZERO DUP3 SWAP1 PUSH2 0x6A6 JUMPI PUSH1 0x40 MLOAD PUSH32 0x8C379A000000000000000000000000000000000000000000000000000000000 DUP2 MSTORE PUSH1 0x4 ADD DUP1 DUP1 PUSH1 0x20 ADD DUP3 DUP2 SUB DUP3 MSTORE DUP4 DUP2 DUP2 MLOAD DUP2 MSTORE PUSH1 0x20 ADD SWAP2 POP DUP1 MLOAD SWAP1 PUSH1 0x20 ADD SWAP1 DUP1 DUP4 DUP4 PUSH1 0x0 JUMPDEST DUP4 DUP2 LT ISZERO PUSH2 0x66B JUMPI DUP1 DUP3 ADD MLOAD DUP2 DUP5 ADD MSTORE PUSH1 0x20 DUP2 ADD SWAP1 POP PUSH2 0x650 JUMP JUMPDEST POP POP POP POP SWAP1 POP SWAP1 DUP2 ADD SWAP1 PUSH1 0x1F AND DUP1 ISZERO PUSH2 0x698 JUMPI DUP1 DUP3 SUB DUP1 MLOAD PUSH1 0x1 DUP4 PUSH1 0x20 SUB PUSH2 0x100 EXP SUB NOT AND DUP2 MSTORE PUSH1 0x20 ADD SWAP2 POP JUMPDEST POP SWAP3 POP POP POP PUSH1 0x40 MLOAD DUP1 SWAP2 SUB SWAP1 REVERT JUMPDEST POP PUSH1 0x0 DUP4 DUP6 SUB SWAP1 POP DUP1 SWAP2 POP POP SWAP4 SWAP3 POP POP POP JUMP INVALID MSTORE8 PUSH2 0x6665 0x4D PUSH2 0x7468 GASPRICE KECCAK256 PUSH14 0x756C7469706C69636174696F6E20 PUSH16 0x766572666C6F77A265627A7A72315820 0xFC 0x4E 0xAD PUSH19 0x455CD373FCA3E33A690469120B74F06FB9966F 0xCF GASLIMIT CODESIZE LOG0 ADDMOD SWAP6 0x4F LOG0 0xC3 PUSH5 0x736F6C6343 STOP SDIV GT STOP ORIGIN "
				},
				"gasEstimates": {
					"creation": {
						"codeDepositCost": "361400",
						"executionCost": "infinite",
						"totalCost": "infinite"
					},
					"external": {
						"baseRatePerBlock()": "1071",
						"blocksPerYear()": "227",
						"getBorrowRate(uint256,uint256,uint256)": "infinite",
						"getSupplyRate(uint256,uint256,uint256,uint256)": "infinite",
						"isInterestRateModel()": "240",
						"multiplierPerBlock()": "1005",
						"utilizationRate(uint256,uint256,uint256)": "infinite"
					}
				},
				"methodIdentifiers": {
					"baseRatePerBlock()": "f14039de",
					"blocksPerYear()": "a385fb96",
					"getBorrowRate(uint256,uint256,uint256)": "15f24053",
					"getSupplyRate(uint256,uint256,uint256,uint256)": "b8168816",
					"isInterestRateModel()": "2191f92a",
					"multiplierPerBlock()": "8726bb89",
					"utilizationRate(uint256,uint256,uint256)": "6e71e2d8"
				}
			},
			"storageLayout": {
				"storage": [
					{
						"astId": 1830,
						"contract": "InterestRateModel.sol:InterestRateModel",
						"label": "multiplierPerBlock",
						"offset": 0,
						"slot": "0",
						"type": "t_uint256"
					},
					{
						"astId": 1832,
						"contract": "InterestRateModel.sol:InterestRateModel",
						"label": "baseRatePerBlock",
						"offset": 0,
						"slot": "1",
						"type": "t_uint256"
					}
				],
				"types": {
					"t_uint256": {
						"encoding": "inplace",
						"label": "uint256",
						"numberOfBytes": "32"
					}
				}
			},
			"userdoc": {
				"methods": {
					"constructor": "Construct an interest rate model",
					"getBorrowRate(uint256,uint256,uint256)": {
						"notice": "Calculates the current borrow rate per block, with the error code expected by the market"
					},
					"getSupplyRate(uint256,uint256,uint256,uint256)": {
						"notice": "Calculates the current supply rate per block"
					},
					"utilizationRate(uint256,uint256,uint256)": {
						"notice": "Calculates the utilization rate of the market: `borrows / (cash + borrows - reserves)`"
					}
				},
				"notice": "The parameterized model is described in section X.y of the original Niural Protocol whitepaper"
			}
		}
	}
}