{
	"Test.sol": {
		"Test": {
			"abi": [
				{
					"inputs": [
						{
							"internalType": "uint256",
							"name": "testVal",
							"type": "uint256"
						}
					],
					"payable": false,
					"stateMutability": "nonpayable",
					"type": "constructor"
				},
				{
					"constant": true,
					"inputs": [],
					"name": "multiplierPerBlock",
					"outputs": [
						{
							"internalType": "uint256",
							"name": "",
							"type": "uint256"
						}
					],
					"payable": false,
					"stateMutability": "view",
					"type": "function"
				},
				{
					"constant": true,
					"inputs": [],
					"name": "run",
					"outputs": [
						{
							"internalType": "uint256",
							"name": "",
							"type": "uint256"
						}
					],
					"payable": false,
					"stateMutability": "view",
					"type": "function"
				}
			],
			"devdoc": {
				"methods": {}
			},
			"evm": {
				"assembly": "    /* \"Test.sol\":26:201  contract Test {... */\n  mstore(0x40, 0x80)\n    /* \"Test.sol\":84:125  constructor(uint testVal) public {... */\n  callvalue\n    /* \"--CODEGEN--\":8:17   */\n  dup1\n    /* \"--CODEGEN--\":5:7   */\n  iszero\n  tag_1\n  jumpi\n    /* \"--CODEGEN--\":30:31   */\n  0x00\n    /* \"--CODEGEN--\":27:28   */\n  dup1\n    /* \"--CODEGEN--\":20:32   */\n  revert\n    /* \"--CODEGEN--\":5:7   */\ntag_1:\n    /* \"Test.sol\":84:125  constructor(uint testVal) public {... */\n  pop\n  mload(0x40)\n  sub(codesize, bytecodeSize)\n  dup1\n  bytecodeSize\n  dup4\n  codecopy\n  dup2\n  dup2\n  add\n  0x40\n  mstore\n    /* \"--CODEGEN--\":13:15   */\n  0x20\n    /* \"--CODEGEN--\":8:11   */\n  dup2\n    /* \"--CODEGEN--\":5:16   */\n  lt\n    /* \"--CODEGEN--\":2:4   */\n  iszero\n  tag_2\n  jumpi\n    /* \"--CODEGEN--\":29:30   */\n  0x00\n    /* \"--CODEGEN--\":26:27   */\n  dup1\n    /* \"--CODEGEN--\":19:31   */\n  revert\n    /* \"--CODEGEN--\":2:4   */\ntag_2:\n  pop\n  pop\n    /* \"Test.sol\":26:201  contract Test {... */\n  dataSize(sub_0)\n  dup1\n  dataOffset(sub_0)\n  0x00\n  codecopy\n  0x00\n  return\nstop\n\nsub_0: assembly {\n        /* \"Test.sol\":26:201  contract Test {... */\n      mstore(0x40, 0x80)\n      callvalue\n        /* \"--CODEGEN--\":8:17   */\n      dup1\n        /* \"--CODEGEN--\":5:7   */\n      iszero\n      tag_1\n      jumpi\n        /* \"--CODEGEN--\":30:31   */\n      0x00\n        /* \"--CODEGEN--\":27:28   */\n      dup1\n        /* \"--CODEGEN--\":20:32   */\n      revert\n        /* \"--CODEGEN--\":5:7   */\n    tag_1:\n        /* \"Test.sol\":26:201  contract Test {... */\n      pop\n      jumpi(tag_2, lt(calldatasize, 0x04))\n      shr(0xe0, calldataload(0x00))\n      dup1\n      0x8726bb89\n      eq\n      tag_3\n      jumpi\n      dup1\n      0xc0406226\n      eq\n      tag_4\n      jumpi\n    tag_2:\n      0x00\n      dup1\n      revert\n        /* \"Test.sol\":47:77  uint public multiplierPerBlock */\n    tag_3:\n      tag_5\n      tag_6\n      jump\t// in\n    tag_5:\n      0x40\n      dup1\n      mload\n      swap2\n      dup3\n      mstore\n      mload\n      swap1\n      dup2\n      swap1\n      sub\n      0x20\n      add\n      swap1\n      return\n        /* \"Test.sol\":131:199  function run() external pure returns(uint) {... */\n    tag_4:\n      tag_5\n      tag_8\n      jump\t// in\n        /* \"Test.sol\":47:77  uint public multiplierPerBlock */\n    tag_6:\n      sload(0x00)\n      dup2\n      jump\t// out\n        /* \"Test.sol\":131:199  function run() external pure returns(uint) {... */\n    tag_8:\n        /* \"Test.sol\":191:192  1 */\n      0x01\n        /* \"Test.sol\":131:199  function run() external pure returns(uint) {... */\n      swap1\n      jump\t// out\n\n    auxdata: 0xa265627a7a723158203d8446ce35f8c07203c0d867a8ddc688ce8a8a22104581b772451137f017e0fb64736f6c63430005110032\n}\n",
				"bytecode": {
					"linkReferences": {},
					"object": "608060405234801561001057600080fd5b506040516100d83803806100d88339818101604052602081101561003357600080fd5b50506095806100436000396000f3fe6080604052348015600f57600080fd5b506004361060325760003560e01c80638726bb89146037578063c040622614604f575b600080fd5b603d6055565b60408051918252519081900360200190f35b603d605b565b60005481565b60019056fea265627a7a723158203d8446ce35f8c07203c0d867a8ddc688ce8a8a22104581b772451137f017e0fb64736f6c63430005110032",
					"opcodes": "PUSH1 0x80 PUSH1 0x40 MSTORE CALLVALUE DUP1 ISZERO PUSH2 0x10 JUMPI PUSH1 0x0 DUP1 REVERT JUMPDEST POP PUSH1 0x40 MLOAD PUSH2 0xD8 CODESIZE SUB DUP1 PUSH2 0xD8 DUP4 CODECOPY DUP2 DUP2 ADD PUSH1 0x40 MSTORE PUSH1 0x20 DUP2 LT ISZERO PUSH2 0x33 JUMPI PUSH1 0x0 DUP1 REVERT JUMPDEST POP POP PUSH1 0x95 DUP1 PUSH2 0x43 PUSH1 0x0 CODECOPY PUSH1 0x0 RETURN INVALID PUSH1 0x80 PUSH1 0x40 MSTORE CALLVALUE DUP1 ISZERO PUSH1 0xF JUMPI PUSH1 0x0 DUP1 REVERT JUMPDEST POP PUSH1 0x4 CALLDATASIZE LT PUSH1 0x32 JUMPI PUSH1 0x0 CALLDATALOAD PUSH1 0xE0 SHR DUP1 PUSH4 0x8726BB89 EQ PUSH1 0x37 JUMPI DUP1 PUSH4 0xC0406226 EQ PUSH1 0x4F JUMPI JUMPDEST PUSH1 0x0 DUP1 REVERT JUMPDEST PUSH1 0x3D PUSH1 0x55 JUMP JUMPDEST PUSH1 0x40 DUP1 MLOAD SWAP2 DUP3 MSTORE MLOAD SWAP1 DUP2 SWAP1 SUB PUSH1 0x20 ADD SWAP1 RETURN JUMPDEST PUSH1 0x3D PUSH1 0x5B JUMP JUMPDEST PUSH1 0x0 SLOAD DUP2 JUMP JUMPDEST PUSH1 0x1 SWAP1 JUMP INVALID LOG2 PUSH6 0x627A7A723158 KECCAK256 RETURNDATASIZE DUP5 CHAINID 0xCE CALLDATALOAD 0xF8 0xC0 PUSH19 0x3C0D867A8DDC688CE8A8A22104581B7724511 CALLDATACOPY CREATE OR 0xE0 0xFB PUSH5 0x736F6C6343 STOP SDIV GT STOP ORIGIN "
				},
				"gasEstimates": {
					"creation": {
						"codeDepositCost": "29800",
						"executionCost": "infinite",
						"totalCost": "infinite"
					},
					"external": {
						"multiplierPerBlock()": "976",
						"run()": "198"
					}
				},
				"methodIdentifiers": {
					"multiplierPerBlock()": "8726bb89",
					"run()": "c0406226"
				}
			},
			"storageLayout": {
				"storage": [
					{
						"astId": 3,
						"contract": "Test.sol:Test",
						"label": "multiplierPerBlock",
						"offset": 0,
						"slot": "0",
						"type": "t_uint256"
					}
				],
				"types": {
					"t_uint256": {
						"encoding": "inplace",
						"label": "uint256",
						"numberOfBytes": "32"
					}
				}
			},
			"userdoc": {
				"methods": {}
			}
		}
	}
}