{
	"data": {
		"bytecode": {
			"linkReferences": {},
			"object": "608060405234801561001057600080fd5b506040516106da3803806106da8339818101604052604081101561003357600080fd5b508051602091820151909161005690839062201480906102ee6100bc821b17901c565b60015561007181622014806100bc602090811b6102ee17901c565b600081905560015460408051918252602082019290925281517ff35fa19c15e9ba782633a5df62a98b20217151addc68e3ff2cd623a48d37ec27929181900390910190a150506101ad565b600061010483836040518060400160405280601a81526020017f536166654d6174683a206469766973696f6e206279207a65726f00000000000081525061010b60201b60201c565b9392505050565b600081836101975760405162461bcd60e51b81526004018080602001828103825283818151815260200191508051906020019080838360005b8381101561015c578181015183820152602001610144565b50505050905090810190601f1680156101895780820380516001836020036101000a031916815260200191505b509250505060405180910390fd5b5060008385816101a357fe5b0495945050505050565b61051e806101bc6000396000f3fe608060405234801561001057600080fd5b506004361061007d5760003560e01c80638726bb891161005b5780638726bb8914610102578063a385fb961461010a578063b816881614610112578063f14039de146101415761007d565b806315f24053146100825780632191f92a146100bd5780636e71e2d8146100d9575b600080fd5b6100ab6004803603606081101561009857600080fd5b5080359060208101359060400135610149565b60408051918252519081900360200190f35b6100c56101a3565b604080519115158252519081900360200190f35b6100ab600480360360608110156100ef57600080fd5b50803590602081013590604001356101a8565b6100ab6101fa565b6100ab610200565b6100ab6004803603608081101561012857600080fd5b5080359060208101359060408101359060600135610207565b6100ab610286565b6000806101578585856101a8565b905061019860015461018c670de0b6b3a76400006101806000548661028c90919063ffffffff16565b9063ffffffff6102ee16565b9063ffffffff61033016565b9150505b9392505050565b600181565b6000826101b75750600061019c565b6101f26101da836101ce878763ffffffff61033016565b9063ffffffff61038a16565b61018085670de0b6b3a764000063ffffffff61028c16565b949350505050565b60005481565b6220148081565b600080610222670de0b6b3a76400008463ffffffff61038a16565b90506000610231878787610149565b90506000610251670de0b6b3a7640000610180848663ffffffff61028c16565b905061027a670de0b6b3a76400006101808361026e8c8c8c6101a8565b9063ffffffff61028c16565b98975050505050505050565b60015481565b60008261029b575060006102e8565b828202828482816102a857fe5b04146102e55760405162461bcd60e51b81526004018080602001828103825260218152602001806104c96021913960400191505060405180910390fd5b90505b92915050565b60006102e583836040518060400160405280601a81526020017f536166654d6174683a206469766973696f6e206279207a65726f0000000000008152506103cc565b6000828201838110156102e5576040805162461bcd60e51b815260206004820152601b60248201527f536166654d6174683a206164646974696f6e206f766572666c6f770000000000604482015290519081900360640190fd5b60006102e583836040518060400160405280601f81526020017f536166654d6174683a207375627472616374696f6e20756e646572666c6f770081525061046e565b600081836104585760405162461bcd60e51b81526004018080602001828103825283818151815260200191508051906020019080838360005b8381101561041d578181015183820152602001610405565b50505050905090810190601f16801561044a5780820380516001836020036101000a031916815260200191505b509250505060405180910390fd5b50600083858161046457fe5b0495945050505050565b600081848411156104c05760405162461bcd60e51b815260206004820181815283516024840152835190928392604490910191908501908083836000831561041d578181015183820152602001610405565b50505090039056fe536166654d6174683a206d756c7469706c69636174696f6e206f766572666c6f77a265627a7a7231582082b44bd1c7cff9c6f3b1239f0be6ab4f7760525a805ef76c4e4e3a95a3f8e75664736f6c63430005110032",
			"opcodes": "PUSH1 0x80 PUSH1 0x40 MSTORE CALLVALUE DUP1 ISZERO PUSH2 0x10 JUMPI PUSH1 0x0 DUP1 REVERT JUMPDEST POP PUSH1 0x40 MLOAD PUSH2 0x6DA CODESIZE SUB DUP1 PUSH2 0x6DA DUP4 CODECOPY DUP2 DUP2 ADD PUSH1 0x40 MSTORE PUSH1 0x40 DUP2 LT ISZERO PUSH2 0x33 JUMPI PUSH1 0x0 DUP1 REVERT JUMPDEST POP DUP1 MLOAD PUSH1 0x20 SWAP2 DUP3 ADD MLOAD SWAP1 SWAP2 PUSH2 0x56 SWAP1 DUP4 SWAP1 PUSH3 0x201480 SWAP1 PUSH2 0x2EE PUSH2 0xBC DUP3 SHL OR SWAP1 SHR JUMP JUMPDEST PUSH1 0x1 SSTORE PUSH2 0x71 DUP2 PUSH3 0x201480 PUSH2 0xBC PUSH1 0x20 SWAP1 DUP2 SHL PUSH2 0x2EE OR SWAP1 SHR JUMP JUMPDEST PUSH1 0x0 DUP2 SWAP1 SSTORE PUSH1 0x1 SLOAD PUSH1 0x40 DUP1 MLOAD SWAP2 DUP3 MSTORE PUSH1 0x20 DUP3 ADD SWAP3 SWAP1 SWAP3 MSTORE DUP2 MLOAD PUSH32 0xF35FA19C15E9BA782633A5DF62A98B20217151ADDC68E3FF2CD623A48D37EC27 SWAP3 SWAP2 DUP2 SWAP1 SUB SWAP1 SWAP2 ADD SWAP1 LOG1 POP POP PUSH2 0x1AD JUMP JUMPDEST PUSH1 0x0 PUSH2 0x104 DUP4 DUP4 PUSH1 0x40 MLOAD DUP1 PUSH1 0x40 ADD PUSH1 0x40 MSTORE DUP1 PUSH1 0x1A DUP2 MSTORE PUSH1 0x20 ADD PUSH32 0x536166654D6174683A206469766973696F6E206279207A65726F000000000000 DUP2 MSTORE POP PUSH2 0x10B PUSH1 0x20 SHL PUSH1 0x20 SHR JUMP JUMPDEST SWAP4 SWAP3 POP POP POP JUMP JUMPDEST PUSH1 0x0 DUP2 DUP4 PUSH2 0x197 JUMPI PUSH1 0x40 MLOAD PUSH3 0x461BCD PUSH1 0xE5 SHL DUP2 MSTORE PUSH1 0x4 ADD DUP1 DUP1 PUSH1 0x20 ADD DUP3 DUP2 SUB DUP3 MSTORE DUP4 DUP2 DUP2 MLOAD DUP2 MSTORE PUSH1 0x20 ADD SWAP2 POP DUP1 MLOAD SWAP1 PUSH1 0x20 ADD SWAP1 DUP1 DUP4 DUP4 PUSH1 0x0 JUMPDEST DUP4 DUP2 LT ISZERO PUSH2 0x15C JUMPI DUP2 DUP2 ADD MLOAD DUP4 DUP3 ADD MSTORE PUSH1 0x20 ADD PUSH2 0x144 JUMP JUMPDEST POP POP POP POP SWAP1 POP SWAP1 DUP2 ADD SWAP1 PUSH1 0x1F AND DUP1 ISZERO PUSH2 0x189 JUMPI DUP1 DUP3 SUB DUP1 MLOAD PUSH1 0x1 DUP4 PUSH1 0x20 SUB PUSH2 0x100 EXP SUB NOT AND DUP2 MSTORE PUSH1 0x20 ADD SWAP2 POP JUMPDEST POP SWAP3 POP POP POP PUSH1 0x40 MLOAD DUP1 SWAP2 SUB SWAP1 REVERT JUMPDEST POP PUSH1 0x0 DUP4 DUP6 DUP2 PUSH2 0x1A3 JUMPI INVALID JUMPDEST DIV SWAP6 SWAP5 POP POP POP POP POP JUMP JUMPDEST PUSH2 0x51E DUP1 PUSH2 0x1BC PUSH1 0x0 CODECOPY PUSH1 0x0 RETURN INVALID PUSH1 0x80 PUSH1 0x40 MSTORE CALLVALUE DUP1 ISZERO PUSH2 0x10 JUMPI PUSH1 0x0 DUP1 REVERT JUMPDEST POP PUSH1 0x4 CALLDATASIZE LT PUSH2 0x7D JUMPI PUSH1 0x0 CALLDATALOAD PUSH1 0xE0 SHR DUP1 PUSH4 0x8726BB89 GT PUSH2 0x5B JUMPI DUP1 PUSH4 0x8726BB89 EQ PUSH2 0x102 JUMPI DUP1 PUSH4 0xA385FB96 EQ PUSH2 0x10A JUMPI DUP1 PUSH4 0xB8168816 EQ PUSH2 0x112 JUMPI DUP1 PUSH4 0xF14039DE EQ PUSH2 0x141 JUMPI PUSH2 0x7D JUMP JUMPDEST DUP1 PUSH4 0x15F24053 EQ PUSH2 0x82 JUMPI DUP1 PUSH4 0x2191F92A EQ PUSH2 0xBD JUMPI DUP1 PUSH4 0x6E71E2D8 EQ PUSH2 0xD9 JUMPI JUMPDEST PUSH1 0x0 DUP1 REVERT JUMPDEST PUSH2 0xAB PUSH1 0x4 DUP1 CALLDATASIZE SUB PUSH1 0x60 DUP2 LT ISZERO PUSH2 0x98 JUMPI PUSH1 0x0 DUP1 REVERT JUMPDEST POP DUP1 CALLDATALOAD SWAP1 PUSH1 0x20 DUP2 ADD CALLDATALOAD SWAP1 PUSH1 0x40 ADD CALLDATALOAD PUSH2 0x149 JUMP JUMPDEST PUSH1 0x40 DUP1 MLOAD SWAP2 DUP3 MSTORE MLOAD SWAP1 DUP2 SWAP1 SUB PUSH1 0x20 ADD SWAP1 RETURN JUMPDEST PUSH2 0xC5 PUSH2 0x1A3 JUMP JUMPDEST PUSH1 0x40 DUP1 MLOAD SWAP2 ISZERO ISZERO DUP3 MSTORE MLOAD SWAP1 DUP2 SWAP1 SUB PUSH1 0x20 ADD SWAP1 RETURN JUMPDEST PUSH2 0xAB PUSH1 0x4 DUP1 CALLDATASIZE SUB PUSH1 0x60 DUP2 LT ISZERO PUSH2 0xEF JUMPI PUSH1 0x0 DUP1 REVERT JUMPDEST POP DUP1 CALLDATALOAD SWAP1 PUSH1 0x20 DUP2 ADD CALLDATALOAD SWAP1 PUSH1 0x40 ADD CALLDATALOAD PUSH2 0x1A8 JUMP JUMPDEST PUSH2 0xAB PUSH2 0x1FA JUMP JUMPDEST PUSH2 0xAB PUSH2 0x200 JUMP JUMPDEST PUSH2 0xAB PUSH1 0x4 DUP1 CALLDATASIZE SUB PUSH1 0x80 DUP2 LT ISZERO PUSH2 0x128 JUMPI PUSH1 0x0 DUP1 REVERT JUMPDEST POP DUP1 CALLDATALOAD SWAP1 PUSH1 0x20 DUP2 ADD CALLDATALOAD SWAP1 PUSH1 0x40 DUP2 ADD CALLDATALOAD SWAP1 PUSH1 0x60 ADD CALLDATALOAD PUSH2 0x207 JUMP JUMPDEST PUSH2 0xAB PUSH2 0x286 JUMP JUMPDEST PUSH1 0x0 DUP1 PUSH2 0x157 DUP6 DUP6 DUP6 PUSH2 0x1A8 JUMP JUMPDEST SWAP1 POP PUSH2 0x198 PUSH1 0x1 SLOAD PUSH2 0x18C PUSH8 0xDE0B6B3A7640000 PUSH2 0x180 PUSH1 0x0 SLOAD DUP7 PUSH2 0x28C SWAP1 SWAP2 SWAP1 PUSH4 0xFFFFFFFF AND JUMP JUMPDEST SWAP1 PUSH4 0xFFFFFFFF PUSH2 0x2EE AND JUMP JUMPDEST SWAP1 PUSH4 0xFFFFFFFF PUSH2 0x330 AND JUMP JUMPDEST SWAP2 POP POP JUMPDEST SWAP4 SWAP3 POP POP POP JUMP JUMPDEST PUSH1 0x1 DUP2 JUMP JUMPDEST PUSH1 0x0 DUP3 PUSH2 0x1B7 JUMPI POP PUSH1 0x0 PUSH2 0x19C JUMP JUMPDEST PUSH2 0x1F2 PUSH2 0x1DA DUP4 PUSH2 0x1CE DUP8 DUP8 PUSH4 0xFFFFFFFF PUSH2 0x330 AND JUMP JUMPDEST SWAP1 PUSH4 0xFFFFFFFF PUSH2 0x38A AND JUMP JUMPDEST PUSH2 0x180 DUP6 PUSH8 0xDE0B6B3A7640000 PUSH4 0xFFFFFFFF PUSH2 0x28C AND JUMP JUMPDEST SWAP5 SWAP4 POP POP POP POP JUMP JUMPDEST PUSH1 0x0 SLOAD DUP2 JUMP JUMPDEST PUSH3 0x201480 DUP2 JUMP JUMPDEST PUSH1 0x0 DUP1 PUSH2 0x222 PUSH8 0xDE0B6B3A7640000 DUP5 PUSH4 0xFFFFFFFF PUSH2 0x38A AND JUMP JUMPDEST SWAP1 POP PUSH1 0x0 PUSH2 0x231 DUP8 DUP8 DUP8 PUSH2 0x149 JUMP JUMPDEST SWAP1 POP PUSH1 0x0 PUSH2 0x251 PUSH8 0xDE0B6B3A7640000 PUSH2 0x180 DUP5 DUP7 PUSH4 0xFFFFFFFF PUSH2 0x28C AND JUMP JUMPDEST SWAP1 POP PUSH2 0x27A PUSH8 0xDE0B6B3A7640000 PUSH2 0x180 DUP4 PUSH2 0x26E DUP13 DUP13 DUP13 PUSH2 0x1A8 JUMP JUMPDEST SWAP1 PUSH4 0xFFFFFFFF PUSH2 0x28C AND JUMP JUMPDEST SWAP9 SWAP8 POP POP POP POP POP POP POP POP JUMP JUMPDEST PUSH1 0x1 SLOAD DUP2 JUMP JUMPDEST PUSH1 0x0 DUP3 PUSH2 0x29B JUMPI POP PUSH1 0x0 PUSH2 0x2E8 JUMP JUMPDEST DUP3 DUP3 MUL DUP3 DUP5 DUP3 DUP2 PUSH2 0x2A8 JUMPI INVALID JUMPDEST DIV EQ PUSH2 0x2E5 JUMPI PUSH1 0x40 MLOAD PUSH3 0x461BCD PUSH1 0xE5 SHL DUP2 MSTORE PUSH1 0x4 ADD DUP1 DUP1 PUSH1 0x20 ADD DUP3 DUP2 SUB DUP3 MSTORE PUSH1 0x21 DUP2 MSTORE PUSH1 0x20 ADD DUP1 PUSH2 0x4C9 PUSH1 0x21 SWAP2 CODECOPY PUSH1 0x40 ADD SWAP2 POP POP PUSH1 0x40 MLOAD DUP1 SWAP2 SUB SWAP1 REVERT JUMPDEST SWAP1 POP JUMPDEST SWAP3 SWAP2 POP POP JUMP JUMPDEST PUSH1 0x0 PUSH2 0x2E5 DUP4 DUP4 PUSH1 0x40 MLOAD DUP1 PUSH1 0x40 ADD PUSH1 0x40 MSTORE DUP1 PUSH1 0x1A DUP2 MSTORE PUSH1 0x20 ADD PUSH32 0x536166654D6174683A206469766973696F6E206279207A65726F000000000000 DUP2 MSTORE POP PUSH2 0x3CC JUMP JUMPDEST PUSH1 0x0 DUP3 DUP3 ADD DUP4 DUP2 LT ISZERO PUSH2 0x2E5 JUMPI PUSH1 0x40 DUP1 MLOAD PUSH3 0x461BCD PUSH1 0xE5 SHL DUP2 MSTORE PUSH1 0x20 PUSH1 0x4 DUP3 ADD MSTORE PUSH1 0x1B PUSH1 0x24 DUP3 ADD MSTORE PUSH32 0x536166654D6174683A206164646974696F6E206F766572666C6F770000000000 PUSH1 0x44 DUP3 ADD MSTORE SWAP1 MLOAD SWAP1 DUP2 SWAP1 SUB PUSH1 0x64 ADD SWAP1 REVERT JUMPDEST PUSH1 0x0 PUSH2 0x2E5 DUP4 DUP4 PUSH1 0x40 MLOAD DUP1 PUSH1 0x40 ADD PUSH1 0x40 MSTORE DUP1 PUSH1 0x1F DUP2 MSTORE PUSH1 0x20 ADD PUSH32 0x536166654D6174683A207375627472616374696F6E20756E646572666C6F7700 DUP2 MSTORE POP PUSH2 0x46E JUMP JUMPDEST PUSH1 0x0 DUP2 DUP4 PUSH2 0x458 JUMPI PUSH1 0x40 MLOAD PUSH3 0x461BCD PUSH1 0xE5 SHL DUP2 MSTORE PUSH1 0x4 ADD DUP1 DUP1 PUSH1 0x20 ADD DUP3 DUP2 SUB DUP3 MSTORE DUP4 DUP2 DUP2 MLOAD DUP2 MSTORE PUSH1 0x20 ADD SWAP2 POP DUP1 MLOAD SWAP1 PUSH1 0x20 ADD SWAP1 DUP1 DUP4 DUP4 PUSH1 0x0 JUMPDEST DUP4 DUP2 LT ISZERO PUSH2 0x41D JUMPI DUP2 DUP2 ADD MLOAD DUP4 DUP3 ADD MSTORE PUSH1 0x20 ADD PUSH2 0x405 JUMP JUMPDEST POP POP POP POP SWAP1 POP SWAP1 DUP2 ADD SWAP1 PUSH1 0x1F AND DUP1 ISZERO PUSH2 0x44A JUMPI DUP1 DUP3 SUB DUP1 MLOAD PUSH1 0x1 DUP4 PUSH1 0x20 SUB PUSH2 0x100 EXP SUB NOT AND DUP2 MSTORE PUSH1 0x20 ADD SWAP2 POP JUMPDEST POP SWAP3 POP POP POP PUSH1 0x40 MLOAD DUP1 SWAP2 SUB SWAP1 REVERT JUMPDEST POP PUSH1 0x0 DUP4 DUP6 DUP2 PUSH2 0x464 JUMPI INVALID JUMPDEST DIV SWAP6 SWAP5 POP POP POP POP POP JUMP JUMPDEST PUSH1 0x0 DUP2 DUP5 DUP5 GT ISZERO PUSH2 0x4C0 JUMPI PUSH1 0x40 MLOAD PUSH3 0x461BCD PUSH1 0xE5 SHL DUP2 MSTORE PUSH1 0x20 PUSH1 0x4 DUP3 ADD DUP2 DUP2 MSTORE DUP4 MLOAD PUSH1 0x24 DUP5 ADD MSTORE DUP4 MLOAD SWAP1 SWAP3 DUP4 SWAP3 PUSH1 0x44 SWAP1 SWAP2 ADD SWAP2 SWAP1 DUP6 ADD SWAP1 DUP1 DUP4 DUP4 PUSH1 0x0 DUP4 ISZERO PUSH2 0x41D JUMPI DUP2 DUP2 ADD MLOAD DUP4 DUP3 ADD MSTORE PUSH1 0x20 ADD PUSH2 0x405 JUMP JUMPDEST POP POP POP SWAP1 SUB SWAP1 JUMP INVALID MSTORE8 PUSH2 0x6665 0x4D PUSH2 0x7468 GASPRICE KECCAK256 PUSH14 0x756C7469706C69636174696F6E20 PUSH16 0x766572666C6F77A265627A7A72315820 DUP3 0xB4 0x4B 0xD1 0xC7 0xCF 0xF9 0xC6 RETURN 0xB1 0x23 SWAP16 SIGNEXTEND 0xE6 0xAB 0x4F PUSH24 0x60525A805EF76C4E4E3A95A3F8E75664736F6C6343000511 STOP ORIGIN "
		},
		"gasEstimates": {
			"creation": {
				"codeDepositCost": "262000",
				"executionCost": "infinite",
				"totalCost": "infinite"
			},
			"external": {
				"baseRatePerBlock()": "1064",
				"blocksPerYear()": "220",
				"getBorrowRate(uint256,uint256,uint256)": "infinite",
				"getSupplyRate(uint256,uint256,uint256,uint256)": "infinite",
				"isInterestRateModel()": "227",
				"multiplierPerBlock()": "998",
				"utilizationRate(uint256,uint256,uint256)": "infinite"
			}
		},
		"methodIdentifiers": {
			"baseRatePerBlock()": "f14039de",
			"blocksPerYear()": "a385fb96",
			"getBorrowRate(uint256,uint256,uint256)": "15f24053",
			"getSupplyRate(uint256,uint256,uint256,uint256)": "b8168816",
			"isInterestRateModel()": "2191f92a",
			"multiplierPerBlock()": "8726bb89",
			"utilizationRate(uint256,uint256,uint256)": "6e71e2d8"
		}
	},
	"abi": [
		{
			"inputs": [
				{
					"internalType": "uint256",
					"name": "baseRatePerYear",
					"type": "uint256"
				},
				{
					"internalType": "uint256",
					"name": "multiplierPerYear",
					"type": "uint256"
				}
			],
			"payable": false,
			"stateMutability": "nonpayable",
			"type": "constructor"
		},
		{
			"anonymous": false,
			"inputs": [
				{
					"indexed": false,
					"internalType": "uint256",
					"name": "baseRatePerBlock",
					"type": "uint256"
				},
				{
					"indexed": false,
					"internalType": "uint256",
					"name": "multiplierPerBlock",
					"type": "uint256"
				}
			],
			"name": "NewInterestParams",
			"type": "event"
		},
		{
			"constant": true,
			"inputs": [],
			"name": "baseRatePerBlock",
			"outputs": [
				{
					"internalType": "uint256",
					"name": "",
					"type": "uint256"
				}
			],
			"payable": false,
			"stateMutability": "view",
			"type": "function"
		},
		{
			"constant": true,
			"inputs": [],
			"name": "blocksPerYear",
			"outputs": [
				{
					"internalType": "uint256",
					"name": "",
					"type": "uint256"
				}
			],
			"payable": false,
			"stateMutability": "view",
			"type": "function"
		},
		{
			"constant": true,
			"inputs": [
				{
					"internalType": "uint256",
					"name": "cash",
					"type": "uint256"
				},
				{
					"internalType": "uint256",
					"name": "borrows",
					"type": "uint256"
				},
				{
					"internalType": "uint256",
					"name": "reserves",
					"type": "uint256"
				}
			],
			"name": "getBorrowRate",
			"outputs": [
				{
					"internalType": "uint256",
					"name": "",
					"type": "uint256"
				}
			],
			"payable": false,
			"stateMutability": "view",
			"type": "function"
		},
		{
			"constant": true,
			"inputs": [
				{
					"internalType": "uint256",
					"name": "cash",
					"type": "uint256"
				},
				{
					"internalType": "uint256",
					"name": "borrows",
					"type": "uint256"
				},
				{
					"internalType": "uint256",
					"name": "reserves",
					"type": "uint256"
				},
				{
					"internalType": "uint256",
					"name": "reserveFactorMantissa",
					"type": "uint256"
				}
			],
			"name": "getSupplyRate",
			"outputs": [
				{
					"internalType": "uint256",
					"name": "",
					"type": "uint256"
				}
			],
			"payable": false,
			"stateMutability": "view",
			"type": "function"
		},
		{
			"constant": true,
			"inputs": [],
			"name": "isInterestRateModel",
			"outputs": [
				{
					"internalType": "bool",
					"name": "",
					"type": "bool"
				}
			],
			"payable": false,
			"stateMutability": "view",
			"type": "function"
		},
		{
			"constant": true,
			"inputs": [],
			"name": "multiplierPerBlock",
			"outputs": [
				{
					"internalType": "uint256",
					"name": "",
					"type": "uint256"
				}
			],
			"payable": false,
			"stateMutability": "view",
			"type": "function"
		},
		{
			"constant": true,
			"inputs": [
				{
					"internalType": "uint256",
					"name": "cash",
					"type": "uint256"
				},
				{
					"internalType": "uint256",
					"name": "borrows",
					"type": "uint256"
				},
				{
					"internalType": "uint256",
					"name": "reserves",
					"type": "uint256"
				}
			],
			"name": "utilizationRate",
			"outputs": [
				{
					"internalType": "uint256",
					"name": "",
					"type": "uint256"
				}
			],
			"payable": false,
			"stateMutability": "view",
			"type": "function"
		}
	]
}