{
	"data": {
		"bytecode": {
			"linkReferences": {},
			"object": "608060405234801561001057600080fd5b50610809806100206000396000f3fe608060405234801561001057600080fd5b50600436106101e55760003560e01c80637dc0d1d01161010f578063ccd63a55116100a2578063e49f8d3311610071578063e49f8d331461051d578063e6653f3d14610543578063e87554461461054b578063f851a44014610553576101e5565b8063ccd63a55146104b3578063cd9932b3146104e1578063dce15449146104e9578063e349174214610515576101e5565b806394b2294b116100de57806394b2294b14610457578063a4d783801461045f578063ac0b0bb714610485578063bea6b8b81461048d576101e5565b80637dc0d1d0146103d957806387f76303146103e15780638e0bc9ca146103e95780638e8f294b1461040f576101e5565b80633ad93e411161018757806352d84d1e1161015657806352d84d1e146103685780635bf546fb146103855780636d154ea51461038d578063731f0c2b146103b3576101e5565b80633ad93e41146102f85780633c94786f1461031e5780634a5844321461033a5780634ada90af14610360576101e5565b806324a3d622116101c357806324a3d622146102945780632531253b1461029c57806326782247146102c25780632cc17237146102ca576101e5565b8063154645b0146101ea57806319fefe8d1461022257806321af456914610270575b600080fd5b6102106004803603602081101561020057600080fd5b50356001600160a01b031661055b565b60408051918252519081900360200190f35b6102486004803603602081101561023857600080fd5b50356001600160a01b031661056d565b604080516001600160e01b03909316835263ffffffff90911660208301528051918290030190f35b610278610597565b604080516001600160a01b039092168252519081900360200190f35b6102786105a6565b610248600480360360208110156102b257600080fd5b50356001600160a01b03166105b5565b6102786105df565b610210600480360360408110156102e057600080fd5b506001600160a01b03813581169160200135166105ee565b6102106004803603602081101561030e57600080fd5b50356001600160a01b031661060b565b61032661061d565b604080519115158252519081900360200190f35b6102106004803603602081101561035057600080fd5b50356001600160a01b031661062d565b61021061063f565b6102786004803603602081101561037e57600080fd5b5035610645565b61027861066c565b610326600480360360208110156103a357600080fd5b50356001600160a01b031661067b565b610326600480360360208110156103c957600080fd5b50356001600160a01b0316610690565b6102786106a5565b6103266106b4565b610210600480360360208110156103ff57600080fd5b50356001600160a01b03166106c4565b6104356004803603602081101561042557600080fd5b50356001600160a01b03166106d6565b6040805193151584526020840192909252151582820152519081900360600190f35b6102106106fc565b6102106004803603602081101561047557600080fd5b50356001600160a01b0316610702565b610326610714565b610210600480360360208110156104a357600080fd5b50356001600160a01b0316610724565b610210600480360360408110156104c957600080fd5b506001600160a01b0381358116916020013516610736565b610278610753565b610278600480360360408110156104ff57600080fd5b506001600160a01b038135169060200135610762565b610210610797565b6102106004803603602081101561053357600080fd5b50356001600160a01b031661079d565b6103266107af565b6102106107bf565b6102786107c5565b600f6020526000908152604090205481565b6011602052600090815260409020546001600160e01b03811690600160e01b900463ffffffff1682565b6015546001600160a01b031681565b600a546001600160a01b031681565b6010602052600090815260409020546001600160e01b03811690600160e01b900463ffffffff1682565b6001546001600160a01b031681565b601360209081526000928352604080842090915290825290205481565b601a6020526000908152604090205481565b600a54600160a01b900460ff1681565b60166020526000908152604090205481565b60065481565b600d818154811061065257fe5b6000918252602090912001546001600160a01b0316905081565b6003546001600160a01b031681565b600c6020526000908152604090205460ff1681565b600b6020526000908152604090205460ff1681565b6004546001600160a01b031681565b600a54600160b01b900460ff1681565b60196020526000908152604090205481565b60096020526000908152604090208054600182015460039092015460ff91821692911683565b60075481565b60146020526000908152604090205481565b600a54600160b81b900460ff1681565b60186020526000908152604090205481565b601260209081526000928352604080842090915290825290205481565b6002546001600160a01b031681565b6008602052816000526040600020818154811061077b57fe5b6000918252602090912001546001600160a01b03169150829050565b600e5481565b60176020526000908152604090205481565b600a54600160a81b900460ff1681565b60055481565b6000546001600160a01b03168156fea265627a7a723158203f45455390d948b52aea999d1cec359362f11409f83c7a6b55957ebff49678be64736f6c63430005110032",
			"opcodes": "PUSH1 0x80 PUSH1 0x40 MSTORE CALLVALUE DUP1 ISZERO PUSH2 0x10 JUMPI PUSH1 0x0 DUP1 REVERT JUMPDEST POP PUSH2 0x809 DUP1 PUSH2 0x20 PUSH1 0x0 CODECOPY PUSH1 0x0 RETURN INVALID PUSH1 0x80 PUSH1 0x40 MSTORE CALLVALUE DUP1 ISZERO PUSH2 0x10 JUMPI PUSH1 0x0 DUP1 REVERT JUMPDEST POP PUSH1 0x4 CALLDATASIZE LT PUSH2 0x1E5 JUMPI PUSH1 0x0 CALLDATALOAD PUSH1 0xE0 SHR DUP1 PUSH4 0x7DC0D1D0 GT PUSH2 0x10F JUMPI DUP1 PUSH4 0xCCD63A55 GT PUSH2 0xA2 JUMPI DUP1 PUSH4 0xE49F8D33 GT PUSH2 0x71 JUMPI DUP1 PUSH4 0xE49F8D33 EQ PUSH2 0x51D JUMPI DUP1 PUSH4 0xE6653F3D EQ PUSH2 0x543 JUMPI DUP1 PUSH4 0xE8755446 EQ PUSH2 0x54B JUMPI DUP1 PUSH4 0xF851A440 EQ PUSH2 0x553 JUMPI PUSH2 0x1E5 JUMP JUMPDEST DUP1 PUSH4 0xCCD63A55 EQ PUSH2 0x4B3 JUMPI DUP1 PUSH4 0xCD9932B3 EQ PUSH2 0x4E1 JUMPI DUP1 PUSH4 0xDCE15449 EQ PUSH2 0x4E9 JUMPI DUP1 PUSH4 0xE3491742 EQ PUSH2 0x515 JUMPI PUSH2 0x1E5 JUMP JUMPDEST DUP1 PUSH4 0x94B2294B GT PUSH2 0xDE JUMPI DUP1 PUSH4 0x94B2294B EQ PUSH2 0x457 JUMPI DUP1 PUSH4 0xA4D78380 EQ PUSH2 0x45F JUMPI DUP1 PUSH4 0xAC0B0BB7 EQ PUSH2 0x485 JUMPI DUP1 PUSH4 0xBEA6B8B8 EQ PUSH2 0x48D JUMPI PUSH2 0x1E5 JUMP JUMPDEST DUP1 PUSH4 0x7DC0D1D0 EQ PUSH2 0x3D9 JUMPI DUP1 PUSH4 0x87F76303 EQ PUSH2 0x3E1 JUMPI DUP1 PUSH4 0x8E0BC9CA EQ PUSH2 0x3E9 JUMPI DUP1 PUSH4 0x8E8F294B EQ PUSH2 0x40F JUMPI PUSH2 0x1E5 JUMP JUMPDEST DUP1 PUSH4 0x3AD93E41 GT PUSH2 0x187 JUMPI DUP1 PUSH4 0x52D84D1E GT PUSH2 0x156 JUMPI DUP1 PUSH4 0x52D84D1E EQ PUSH2 0x368 JUMPI DUP1 PUSH4 0x5BF546FB EQ PUSH2 0x385 JUMPI DUP1 PUSH4 0x6D154EA5 EQ PUSH2 0x38D JUMPI DUP1 PUSH4 0x731F0C2B EQ PUSH2 0x3B3 JUMPI PUSH2 0x1E5 JUMP JUMPDEST DUP1 PUSH4 0x3AD93E41 EQ PUSH2 0x2F8 JUMPI DUP1 PUSH4 0x3C94786F EQ PUSH2 0x31E JUMPI DUP1 PUSH4 0x4A584432 EQ PUSH2 0x33A JUMPI DUP1 PUSH4 0x4ADA90AF EQ PUSH2 0x360 JUMPI PUSH2 0x1E5 JUMP JUMPDEST DUP1 PUSH4 0x24A3D622 GT PUSH2 0x1C3 JUMPI DUP1 PUSH4 0x24A3D622 EQ PUSH2 0x294 JUMPI DUP1 PUSH4 0x2531253B EQ PUSH2 0x29C JUMPI DUP1 PUSH4 0x26782247 EQ PUSH2 0x2C2 JUMPI DUP1 PUSH4 0x2CC17237 EQ PUSH2 0x2CA JUMPI PUSH2 0x1E5 JUMP JUMPDEST DUP1 PUSH4 0x154645B0 EQ PUSH2 0x1EA JUMPI DUP1 PUSH4 0x19FEFE8D EQ PUSH2 0x222 JUMPI DUP1 PUSH4 0x21AF4569 EQ PUSH2 0x270 JUMPI JUMPDEST PUSH1 0x0 DUP1 REVERT JUMPDEST PUSH2 0x210 PUSH1 0x4 DUP1 CALLDATASIZE SUB PUSH1 0x20 DUP2 LT ISZERO PUSH2 0x200 JUMPI PUSH1 0x0 DUP1 REVERT JUMPDEST POP CALLDATALOAD PUSH1 0x1 PUSH1 0x1 PUSH1 0xA0 SHL SUB AND PUSH2 0x55B JUMP JUMPDEST PUSH1 0x40 DUP1 MLOAD SWAP2 DUP3 MSTORE MLOAD SWAP1 DUP2 SWAP1 SUB PUSH1 0x20 ADD SWAP1 RETURN JUMPDEST PUSH2 0x248 PUSH1 0x4 DUP1 CALLDATASIZE SUB PUSH1 0x20 DUP2 LT ISZERO PUSH2 0x238 JUMPI PUSH1 0x0 DUP1 REVERT JUMPDEST POP CALLDATALOAD PUSH1 0x1 PUSH1 0x1 PUSH1 0xA0 SHL SUB AND PUSH2 0x56D JUMP JUMPDEST PUSH1 0x40 DUP1 MLOAD PUSH1 0x1 PUSH1 0x1 PUSH1 0xE0 SHL SUB SWAP1 SWAP4 AND DUP4 MSTORE PUSH4 0xFFFFFFFF SWAP1 SWAP2 AND PUSH1 0x20 DUP4 ADD MSTORE DUP1 MLOAD SWAP2 DUP3 SWAP1 SUB ADD SWAP1 RETURN JUMPDEST PUSH2 0x278 PUSH2 0x597 JUMP JUMPDEST PUSH1 0x40 DUP1 MLOAD PUSH1 0x1 PUSH1 0x1 PUSH1 0xA0 SHL SUB SWAP1 SWAP3 AND DUP3 MSTORE MLOAD SWAP1 DUP2 SWAP1 SUB PUSH1 0x20 ADD SWAP1 RETURN JUMPDEST PUSH2 0x278 PUSH2 0x5A6 JUMP JUMPDEST PUSH2 0x248 PUSH1 0x4 DUP1 CALLDATASIZE SUB PUSH1 0x20 DUP2 LT ISZERO PUSH2 0x2B2 JUMPI PUSH1 0x0 DUP1 REVERT JUMPDEST POP CALLDATALOAD PUSH1 0x1 PUSH1 0x1 PUSH1 0xA0 SHL SUB AND PUSH2 0x5B5 JUMP JUMPDEST PUSH2 0x278 PUSH2 0x5DF JUMP JUMPDEST PUSH2 0x210 PUSH1 0x4 DUP1 CALLDATASIZE SUB PUSH1 0x40 DUP2 LT ISZERO PUSH2 0x2E0 JUMPI PUSH1 0x0 DUP1 REVERT JUMPDEST POP PUSH1 0x1 PUSH1 0x1 PUSH1 0xA0 SHL SUB DUP2 CALLDATALOAD DUP2 AND SWAP2 PUSH1 0x20 ADD CALLDATALOAD AND PUSH2 0x5EE JUMP JUMPDEST PUSH2 0x210 PUSH1 0x4 DUP1 CALLDATASIZE SUB PUSH1 0x20 DUP2 LT ISZERO PUSH2 0x30E JUMPI PUSH1 0x0 DUP1 REVERT JUMPDEST POP CALLDATALOAD PUSH1 0x1 PUSH1 0x1 PUSH1 0xA0 SHL SUB AND PUSH2 0x60B JUMP JUMPDEST PUSH2 0x326 PUSH2 0x61D JUMP JUMPDEST PUSH1 0x40 DUP1 MLOAD SWAP2 ISZERO ISZERO DUP3 MSTORE MLOAD SWAP1 DUP2 SWAP1 SUB PUSH1 0x20 ADD SWAP1 RETURN JUMPDEST PUSH2 0x210 PUSH1 0x4 DUP1 CALLDATASIZE SUB PUSH1 0x20 DUP2 LT ISZERO PUSH2 0x350 JUMPI PUSH1 0x0 DUP1 REVERT JUMPDEST POP CALLDATALOAD PUSH1 0x1 PUSH1 0x1 PUSH1 0xA0 SHL SUB AND PUSH2 0x62D JUMP JUMPDEST PUSH2 0x210 PUSH2 0x63F JUMP JUMPDEST PUSH2 0x278 PUSH1 0x4 DUP1 CALLDATASIZE SUB PUSH1 0x20 DUP2 LT ISZERO PUSH2 0x37E JUMPI PUSH1 0x0 DUP1 REVERT JUMPDEST POP CALLDATALOAD PUSH2 0x645 JUMP JUMPDEST PUSH2 0x278 PUSH2 0x66C JUMP JUMPDEST PUSH2 0x326 PUSH1 0x4 DUP1 CALLDATASIZE SUB PUSH1 0x20 DUP2 LT ISZERO PUSH2 0x3A3 JUMPI PUSH1 0x0 DUP1 REVERT JUMPDEST POP CALLDATALOAD PUSH1 0x1 PUSH1 0x1 PUSH1 0xA0 SHL SUB AND PUSH2 0x67B JUMP JUMPDEST PUSH2 0x326 PUSH1 0x4 DUP1 CALLDATASIZE SUB PUSH1 0x20 DUP2 LT ISZERO PUSH2 0x3C9 JUMPI PUSH1 0x0 DUP1 REVERT JUMPDEST POP CALLDATALOAD PUSH1 0x1 PUSH1 0x1 PUSH1 0xA0 SHL SUB AND PUSH2 0x690 JUMP JUMPDEST PUSH2 0x278 PUSH2 0x6A5 JUMP JUMPDEST PUSH2 0x326 PUSH2 0x6B4 JUMP JUMPDEST PUSH2 0x210 PUSH1 0x4 DUP1 CALLDATASIZE SUB PUSH1 0x20 DUP2 LT ISZERO PUSH2 0x3FF JUMPI PUSH1 0x0 DUP1 REVERT JUMPDEST POP CALLDATALOAD PUSH1 0x1 PUSH1 0x1 PUSH1 0xA0 SHL SUB AND PUSH2 0x6C4 JUMP JUMPDEST PUSH2 0x435 PUSH1 0x4 DUP1 CALLDATASIZE SUB PUSH1 0x20 DUP2 LT ISZERO PUSH2 0x425 JUMPI PUSH1 0x0 DUP1 REVERT JUMPDEST POP CALLDATALOAD PUSH1 0x1 PUSH1 0x1 PUSH1 0xA0 SHL SUB AND PUSH2 0x6D6 JUMP JUMPDEST PUSH1 0x40 DUP1 MLOAD SWAP4 ISZERO ISZERO DUP5 MSTORE PUSH1 0x20 DUP5 ADD SWAP3 SWAP1 SWAP3 MSTORE ISZERO ISZERO DUP3 DUP3 ADD MSTORE MLOAD SWAP1 DUP2 SWAP1 SUB PUSH1 0x60 ADD SWAP1 RETURN JUMPDEST PUSH2 0x210 PUSH2 0x6FC JUMP JUMPDEST PUSH2 0x210 PUSH1 0x4 DUP1 CALLDATASIZE SUB PUSH1 0x20 DUP2 LT ISZERO PUSH2 0x475 JUMPI PUSH1 0x0 DUP1 REVERT JUMPDEST POP CALLDATALOAD PUSH1 0x1 PUSH1 0x1 PUSH1 0xA0 SHL SUB AND PUSH2 0x702 JUMP JUMPDEST PUSH2 0x326 PUSH2 0x714 JUMP JUMPDEST PUSH2 0x210 PUSH1 0x4 DUP1 CALLDATASIZE SUB PUSH1 0x20 DUP2 LT ISZERO PUSH2 0x4A3 JUMPI PUSH1 0x0 DUP1 REVERT JUMPDEST POP CALLDATALOAD PUSH1 0x1 PUSH1 0x1 PUSH1 0xA0 SHL SUB AND PUSH2 0x724 JUMP JUMPDEST PUSH2 0x210 PUSH1 0x4 DUP1 CALLDATASIZE SUB PUSH1 0x40 DUP2 LT ISZERO PUSH2 0x4C9 JUMPI PUSH1 0x0 DUP1 REVERT JUMPDEST POP PUSH1 0x1 PUSH1 0x1 PUSH1 0xA0 SHL SUB DUP2 CALLDATALOAD DUP2 AND SWAP2 PUSH1 0x20 ADD CALLDATALOAD AND PUSH2 0x736 JUMP JUMPDEST PUSH2 0x278 PUSH2 0x753 JUMP JUMPDEST PUSH2 0x278 PUSH1 0x4 DUP1 CALLDATASIZE SUB PUSH1 0x40 DUP2 LT ISZERO PUSH2 0x4FF JUMPI PUSH1 0x0 DUP1 REVERT JUMPDEST POP PUSH1 0x1 PUSH1 0x1 PUSH1 0xA0 SHL SUB DUP2 CALLDATALOAD AND SWAP1 PUSH1 0x20 ADD CALLDATALOAD PUSH2 0x762 JUMP JUMPDEST PUSH2 0x210 PUSH2 0x797 JUMP JUMPDEST PUSH2 0x210 PUSH1 0x4 DUP1 CALLDATASIZE SUB PUSH1 0x20 DUP2 LT ISZERO PUSH2 0x533 JUMPI PUSH1 0x0 DUP1 REVERT JUMPDEST POP CALLDATALOAD PUSH1 0x1 PUSH1 0x1 PUSH1 0xA0 SHL SUB AND PUSH2 0x79D JUMP JUMPDEST PUSH2 0x326 PUSH2 0x7AF JUMP JUMPDEST PUSH2 0x210 PUSH2 0x7BF JUMP JUMPDEST PUSH2 0x278 PUSH2 0x7C5 JUMP JUMPDEST PUSH1 0xF PUSH1 0x20 MSTORE PUSH1 0x0 SWAP1 DUP2 MSTORE PUSH1 0x40 SWAP1 KECCAK256 SLOAD DUP2 JUMP JUMPDEST PUSH1 0x11 PUSH1 0x20 MSTORE PUSH1 0x0 SWAP1 DUP2 MSTORE PUSH1 0x40 SWAP1 KECCAK256 SLOAD PUSH1 0x1 PUSH1 0x1 PUSH1 0xE0 SHL SUB DUP2 AND SWAP1 PUSH1 0x1 PUSH1 0xE0 SHL SWAP1 DIV PUSH4 0xFFFFFFFF AND DUP3 JUMP JUMPDEST PUSH1 0x15 SLOAD PUSH1 0x1 PUSH1 0x1 PUSH1 0xA0 SHL SUB AND DUP2 JUMP JUMPDEST PUSH1 0xA SLOAD PUSH1 0x1 PUSH1 0x1 PUSH1 0xA0 SHL SUB AND DUP2 JUMP JUMPDEST PUSH1 0x10 PUSH1 0x20 MSTORE PUSH1 0x0 SWAP1 DUP2 MSTORE PUSH1 0x40 SWAP1 KECCAK256 SLOAD PUSH1 0x1 PUSH1 0x1 PUSH1 0xE0 SHL SUB DUP2 AND SWAP1 PUSH1 0x1 PUSH1 0xE0 SHL SWAP1 DIV PUSH4 0xFFFFFFFF AND DUP3 JUMP JUMPDEST PUSH1 0x1 SLOAD PUSH1 0x1 PUSH1 0x1 PUSH1 0xA0 SHL SUB AND DUP2 JUMP JUMPDEST PUSH1 0x13 PUSH1 0x20 SWAP1 DUP2 MSTORE PUSH1 0x0 SWAP3 DUP4 MSTORE PUSH1 0x40 DUP1 DUP5 KECCAK256 SWAP1 SWAP2 MSTORE SWAP1 DUP3 MSTORE SWAP1 KECCAK256 SLOAD DUP2 JUMP JUMPDEST PUSH1 0x1A PUSH1 0x20 MSTORE PUSH1 0x0 SWAP1 DUP2 MSTORE PUSH1 0x40 SWAP1 KECCAK256 SLOAD DUP2 JUMP JUMPDEST PUSH1 0xA SLOAD PUSH1 0x1 PUSH1 0xA0 SHL SWAP1 DIV PUSH1 0xFF AND DUP2 JUMP JUMPDEST PUSH1 0x16 PUSH1 0x20 MSTORE PUSH1 0x0 SWAP1 DUP2 MSTORE PUSH1 0x40 SWAP1 KECCAK256 SLOAD DUP2 JUMP JUMPDEST PUSH1 0x6 SLOAD DUP2 JUMP JUMPDEST PUSH1 0xD DUP2 DUP2 SLOAD DUP2 LT PUSH2 0x652 JUMPI INVALID JUMPDEST PUSH1 0x0 SWAP2 DUP3 MSTORE PUSH1 0x20 SWAP1 SWAP2 KECCAK256 ADD SLOAD PUSH1 0x1 PUSH1 0x1 PUSH1 0xA0 SHL SUB AND SWAP1 POP DUP2 JUMP JUMPDEST PUSH1 0x3 SLOAD PUSH1 0x1 PUSH1 0x1 PUSH1 0xA0 SHL SUB AND DUP2 JUMP JUMPDEST PUSH1 0xC PUSH1 0x20 MSTORE PUSH1 0x0 SWAP1 DUP2 MSTORE PUSH1 0x40 SWAP1 KECCAK256 SLOAD PUSH1 0xFF AND DUP2 JUMP JUMPDEST PUSH1 0xB PUSH1 0x20 MSTORE PUSH1 0x0 SWAP1 DUP2 MSTORE PUSH1 0x40 SWAP1 KECCAK256 SLOAD PUSH1 0xFF AND DUP2 JUMP JUMPDEST PUSH1 0x4 SLOAD PUSH1 0x1 PUSH1 0x1 PUSH1 0xA0 SHL SUB AND DUP2 JUMP JUMPDEST PUSH1 0xA SLOAD PUSH1 0x1 PUSH1 0xB0 SHL SWAP1 DIV PUSH1 0xFF AND DUP2 JUMP JUMPDEST PUSH1 0x19 PUSH1 0x20 MSTORE PUSH1 0x0 SWAP1 DUP2 MSTORE PUSH1 0x40 SWAP1 KECCAK256 SLOAD DUP2 JUMP JUMPDEST PUSH1 0x9 PUSH1 0x20 MSTORE PUSH1 0x0 SWAP1 DUP2 MSTORE PUSH1 0x40 SWAP1 KECCAK256 DUP1 SLOAD PUSH1 0x1 DUP3 ADD SLOAD PUSH1 0x3 SWAP1 SWAP3 ADD SLOAD PUSH1 0xFF SWAP2 DUP3 AND SWAP3 SWAP2 AND DUP4 JUMP JUMPDEST PUSH1 0x7 SLOAD DUP2 JUMP JUMPDEST PUSH1 0x14 PUSH1 0x20 MSTORE PUSH1 0x0 SWAP1 DUP2 MSTORE PUSH1 0x40 SWAP1 KECCAK256 SLOAD DUP2 JUMP JUMPDEST PUSH1 0xA SLOAD PUSH1 0x1 PUSH1 0xB8 SHL SWAP1 DIV PUSH1 0xFF AND DUP2 JUMP JUMPDEST PUSH1 0x18 PUSH1 0x20 MSTORE PUSH1 0x0 SWAP1 DUP2 MSTORE PUSH1 0x40 SWAP1 KECCAK256 SLOAD DUP2 JUMP JUMPDEST PUSH1 0x12 PUSH1 0x20 SWAP1 DUP2 MSTORE PUSH1 0x0 SWAP3 DUP4 MSTORE PUSH1 0x40 DUP1 DUP5 KECCAK256 SWAP1 SWAP2 MSTORE SWAP1 DUP3 MSTORE SWAP1 KECCAK256 SLOAD DUP2 JUMP JUMPDEST PUSH1 0x2 SLOAD PUSH1 0x1 PUSH1 0x1 PUSH1 0xA0 SHL SUB AND DUP2 JUMP JUMPDEST PUSH1 0x8 PUSH1 0x20 MSTORE DUP2 PUSH1 0x0 MSTORE PUSH1 0x40 PUSH1 0x0 KECCAK256 DUP2 DUP2 SLOAD DUP2 LT PUSH2 0x77B JUMPI INVALID JUMPDEST PUSH1 0x0 SWAP2 DUP3 MSTORE PUSH1 0x20 SWAP1 SWAP2 KECCAK256 ADD SLOAD PUSH1 0x1 PUSH1 0x1 PUSH1 0xA0 SHL SUB AND SWAP2 POP DUP3 SWAP1 POP JUMP JUMPDEST PUSH1 0xE SLOAD DUP2 JUMP JUMPDEST PUSH1 0x17 PUSH1 0x20 MSTORE PUSH1 0x0 SWAP1 DUP2 MSTORE PUSH1 0x40 SWAP1 KECCAK256 SLOAD DUP2 JUMP JUMPDEST PUSH1 0xA SLOAD PUSH1 0x1 PUSH1 0xA8 SHL SWAP1 DIV PUSH1 0xFF AND DUP2 JUMP JUMPDEST PUSH1 0x5 SLOAD DUP2 JUMP JUMPDEST PUSH1 0x0 SLOAD PUSH1 0x1 PUSH1 0x1 PUSH1 0xA0 SHL SUB AND DUP2 JUMP INVALID LOG2 PUSH6 0x627A7A723158 KECCAK256 EXTCODEHASH GASLIMIT GASLIMIT MSTORE8 SWAP1 0xD9 0x48 0xB5 0x2A 0xEA SWAP10 SWAP14 SHR 0xEC CALLDATALOAD SWAP4 PUSH3 0xF11409 0xF8 EXTCODECOPY PUSH27 0x6B55957EBFF49678BE64736F6C6343000511003200000000000000 "
		},
		"gasEstimates": {
			"creation": {
				"codeDepositCost": "411400",
				"executionCost": "449",
				"totalCost": "411849"
			},
			"external": {
				"_borrowGuardianPaused()": "1093",
				"_mintGuardianPaused()": "1095",
				"accountAssets(address,uint256)": "2160",
				"admin()": "1147",
				"allMarkets(uint256)": "2015",
				"borrowCapGuardian()": "1128",
				"borrowCaps(address)": "1214",
				"borrowGuardianPaused(address)": "1225",
				"closeFactorMantissa()": "1086",
				"lastContributorBlock(address)": "1235",
				"liquidationIncentiveMantissa()": "1110",
				"markets(address)": "2932",
				"maxAssets()": "1043",
				"mintGuardianPaused(address)": "1247",
				"niuAccrued(address)": "1191",
				"niuBorrowSpeeds(address)": "1214",
				"niuBorrowState(address)": "1288",
				"niuBorrowerIndex(address,address)": "1329",
				"niuContributorSpeeds(address)": "1168",
				"niuRate()": "1109",
				"niuSpeeds(address)": "1171",
				"niuSupplierIndex(address,address)": "1262",
				"niuSupplySpeeds(address)": "1170",
				"niuSupplyState(address)": "1287",
				"niutrollerImplementation()": "1104",
				"oracle()": "1083",
				"pauseGuardian()": "1083",
				"pendingAdmin()": "1127",
				"pendingNiutrollerImplementation()": "1104",
				"seizeGuardianPaused()": "1116",
				"transferGuardianPaused()": "1095"
			}
		},
		"methodIdentifiers": {
			"_borrowGuardianPaused()": "e6653f3d",
			"_mintGuardianPaused()": "3c94786f",
			"accountAssets(address,uint256)": "dce15449",
			"admin()": "f851a440",
			"allMarkets(uint256)": "52d84d1e",
			"borrowCapGuardian()": "21af4569",
			"borrowCaps(address)": "4a584432",
			"borrowGuardianPaused(address)": "6d154ea5",
			"closeFactorMantissa()": "e8755446",
			"lastContributorBlock(address)": "bea6b8b8",
			"liquidationIncentiveMantissa()": "4ada90af",
			"markets(address)": "8e8f294b",
			"maxAssets()": "94b2294b",
			"mintGuardianPaused(address)": "731f0c2b",
			"niuAccrued(address)": "a4d78380",
			"niuBorrowSpeeds(address)": "8e0bc9ca",
			"niuBorrowState(address)": "19fefe8d",
			"niuBorrowerIndex(address,address)": "2cc17237",
			"niuContributorSpeeds(address)": "e49f8d33",
			"niuRate()": "e3491742",
			"niuSpeeds(address)": "154645b0",
			"niuSupplierIndex(address,address)": "ccd63a55",
			"niuSupplySpeeds(address)": "3ad93e41",
			"niuSupplyState(address)": "2531253b",
			"niutrollerImplementation()": "cd9932b3",
			"oracle()": "7dc0d1d0",
			"pauseGuardian()": "24a3d622",
			"pendingAdmin()": "26782247",
			"pendingNiutrollerImplementation()": "5bf546fb",
			"seizeGuardianPaused()": "ac0b0bb7",
			"transferGuardianPaused()": "87f76303"
		}
	},
	"abi": [
		{
			"constant": true,
			"inputs": [],
			"name": "_borrowGuardianPaused",
			"outputs": [
				{
					"internalType": "bool",
					"name": "",
					"type": "bool"
				}
			],
			"payable": false,
			"stateMutability": "view",
			"type": "function"
		},
		{
			"constant": true,
			"inputs": [],
			"name": "_mintGuardianPaused",
			"outputs": [
				{
					"internalType": "bool",
					"name": "",
					"type": "bool"
				}
			],
			"payable": false,
			"stateMutability": "view",
			"type": "function"
		},
		{
			"constant": true,
			"inputs": [
				{
					"internalType": "address",
					"name": "",
					"type": "address"
				},
				{
					"internalType": "uint256",
					"name": "",
					"type": "uint256"
				}
			],
			"name": "accountAssets",
			"outputs": [
				{
					"internalType": "contract NToken",
					"name": "",
					"type": "address"
				}
			],
			"payable": false,
			"stateMutability": "view",
			"type": "function"
		},
		{
			"constant": true,
			"inputs": [],
			"name": "admin",
			"outputs": [
				{
					"internalType": "address",
					"name": "",
					"type": "address"
				}
			],
			"payable": false,
			"stateMutability": "view",
			"type": "function"
		},
		{
			"constant": true,
			"inputs": [
				{
					"internalType": "uint256",
					"name": "",
					"type": "uint256"
				}
			],
			"name": "allMarkets",
			"outputs": [
				{
					"internalType": "contract NToken",
					"name": "",
					"type": "address"
				}
			],
			"payable": false,
			"stateMutability": "view",
			"type": "function"
		},
		{
			"constant": true,
			"inputs": [],
			"name": "borrowCapGuardian",
			"outputs": [
				{
					"internalType": "address",
					"name": "",
					"type": "address"
				}
			],
			"payable": false,
			"stateMutability": "view",
			"type": "function"
		},
		{
			"constant": true,
			"inputs": [
				{
					"internalType": "address",
					"name": "",
					"type": "address"
				}
			],
			"name": "borrowCaps",
			"outputs": [
				{
					"internalType": "uint256",
					"name": "",
					"type": "uint256"
				}
			],
			"payable": false,
			"stateMutability": "view",
			"type": "function"
		},
		{
			"constant": true,
			"inputs": [
				{
					"internalType": "address",
					"name": "",
					"type": "address"
				}
			],
			"name": "borrowGuardianPaused",
			"outputs": [
				{
					"internalType": "bool",
					"name": "",
					"type": "bool"
				}
			],
			"payable": false,
			"stateMutability": "view",
			"type": "function"
		},
		{
			"constant": true,
			"inputs": [],
			"name": "closeFactorMantissa",
			"outputs": [
				{
					"internalType": "uint256",
					"name": "",
					"type": "uint256"
				}
			],
			"payable": false,
			"stateMutability": "view",
			"type": "function"
		},
		{
			"constant": true,
			"inputs": [
				{
					"internalType": "address",
					"name": "",
					"type": "address"
				}
			],
			"name": "lastContributorBlock",
			"outputs": [
				{
					"internalType": "uint256",
					"name": "",
					"type": "uint256"
				}
			],
			"payable": false,
			"stateMutability": "view",
			"type": "function"
		},
		{
			"constant": true,
			"inputs": [],
			"name": "liquidationIncentiveMantissa",
			"outputs": [
				{
					"internalType": "uint256",
					"name": "",
					"type": "uint256"
				}
			],
			"payable": false,
			"stateMutability": "view",
			"type": "function"
		},
		{
			"constant": true,
			"inputs": [
				{
					"internalType": "address",
					"name": "",
					"type": "address"
				}
			],
			"name": "markets",
			"outputs": [
				{
					"internalType": "bool",
					"name": "isListed",
					"type": "bool"
				},
				{
					"internalType": "uint256",
					"name": "collateralFactorMantissa",
					"type": "uint256"
				},
				{
					"internalType": "bool",
					"name": "isNiued",
					"type": "bool"
				}
			],
			"payable": false,
			"stateMutability": "view",
			"type": "function"
		},
		{
			"constant": true,
			"inputs": [],
			"name": "maxAssets",
			"outputs": [
				{
					"internalType": "uint256",
					"name": "",
					"type": "uint256"
				}
			],
			"payable": false,
			"stateMutability": "view",
			"type": "function"
		},
		{
			"constant": true,
			"inputs": [
				{
					"internalType": "address",
					"name": "",
					"type": "address"
				}
			],
			"name": "mintGuardianPaused",
			"outputs": [
				{
					"internalType": "bool",
					"name": "",
					"type": "bool"
				}
			],
			"payable": false,
			"stateMutability": "view",
			"type": "function"
		},
		{
			"constant": true,
			"inputs": [
				{
					"internalType": "address",
					"name": "",
					"type": "address"
				}
			],
			"name": "niuAccrued",
			"outputs": [
				{
					"internalType": "uint256",
					"name": "",
					"type": "uint256"
				}
			],
			"payable": false,
			"stateMutability": "view",
			"type": "function"
		},
		{
			"constant": true,
			"inputs": [
				{
					"internalType": "address",
					"name": "",
					"type": "address"
				}
			],
			"name": "niuBorrowSpeeds",
			"outputs": [
				{
					"internalType": "uint256",
					"name": "",
					"type": "uint256"
				}
			],
			"payable": false,
			"stateMutability": "view",
			"type": "function"
		},
		{
			"constant": true,
			"inputs": [
				{
					"internalType": "address",
					"name": "",
					"type": "address"
				}
			],
			"name": "niuBorrowState",
			"outputs": [
				{
					"internalType": "uint224",
					"name": "index",
					"type": "uint224"
				},
				{
					"internalType": "uint32",
					"name": "block",
					"type": "uint32"
				}
			],
			"payable": false,
			"stateMutability": "view",
			"type": "function"
		},
		{
			"constant": true,
			"inputs": [
				{
					"internalType": "address",
					"name": "",
					"type": "address"
				},
				{
					"internalType": "address",
					"name": "",
					"type": "address"
				}
			],
			"name": "niuBorrowerIndex",
			"outputs": [
				{
					"internalType": "uint256",
					"name": "",
					"type": "uint256"
				}
			],
			"payable": false,
			"stateMutability": "view",
			"type": "function"
		},
		{
			"constant": true,
			"inputs": [
				{
					"internalType": "address",
					"name": "",
					"type": "address"
				}
			],
			"name": "niuContributorSpeeds",
			"outputs": [
				{
					"internalType": "uint256",
					"name": "",
					"type": "uint256"
				}
			],
			"payable": false,
			"stateMutability": "view",
			"type": "function"
		},
		{
			"constant": true,
			"inputs": [],
			"name": "niuRate",
			"outputs": [
				{
					"internalType": "uint256",
					"name": "",
					"type": "uint256"
				}
			],
			"payable": false,
			"stateMutability": "view",
			"type": "function"
		},
		{
			"constant": true,
			"inputs": [
				{
					"internalType": "address",
					"name": "",
					"type": "address"
				}
			],
			"name": "niuSpeeds",
			"outputs": [
				{
					"internalType": "uint256",
					"name": "",
					"type": "uint256"
				}
			],
			"payable": false,
			"stateMutability": "view",
			"type": "function"
		},
		{
			"constant": true,
			"inputs": [
				{
					"internalType": "address",
					"name": "",
					"type": "address"
				},
				{
					"internalType": "address",
					"name": "",
					"type": "address"
				}
			],
			"name": "niuSupplierIndex",
			"outputs": [
				{
					"internalType": "uint256",
					"name": "",
					"type": "uint256"
				}
			],
			"payable": false,
			"stateMutability": "view",
			"type": "function"
		},
		{
			"constant": true,
			"inputs": [
				{
					"internalType": "address",
					"name": "",
					"type": "address"
				}
			],
			"name": "niuSupplySpeeds",
			"outputs": [
				{
					"internalType": "uint256",
					"name": "",
					"type": "uint256"
				}
			],
			"payable": false,
			"stateMutability": "view",
			"type": "function"
		},
		{
			"constant": true,
			"inputs": [
				{
					"internalType": "address",
					"name": "",
					"type": "address"
				}
			],
			"name": "niuSupplyState",
			"outputs": [
				{
					"internalType": "uint224",
					"name": "index",
					"type": "uint224"
				},
				{
					"internalType": "uint32",
					"name": "block",
					"type": "uint32"
				}
			],
			"payable": false,
			"stateMutability": "view",
			"type": "function"
		},
		{
			"constant": true,
			"inputs": [],
			"name": "niutrollerImplementation",
			"outputs": [
				{
					"internalType": "address",
					"name": "",
					"type": "address"
				}
			],
			"payable": false,
			"stateMutability": "view",
			"type": "function"
		},
		{
			"constant": true,
			"inputs": [],
			"name": "oracle",
			"outputs": [
				{
					"internalType": "contract PriceOracle",
					"name": "",
					"type": "address"
				}
			],
			"payable": false,
			"stateMutability": "view",
			"type": "function"
		},
		{
			"constant": true,
			"inputs": [],
			"name": "pauseGuardian",
			"outputs": [
				{
					"internalType": "address",
					"name": "",
					"type": "address"
				}
			],
			"payable": false,
			"stateMutability": "view",
			"type": "function"
		},
		{
			"constant": true,
			"inputs": [],
			"name": "pendingAdmin",
			"outputs": [
				{
					"internalType": "address",
					"name": "",
					"type": "address"
				}
			],
			"payable": false,
			"stateMutability": "view",
			"type": "function"
		},
		{
			"constant": true,
			"inputs": [],
			"name": "pendingNiutrollerImplementation",
			"outputs": [
				{
					"internalType": "address",
					"name": "",
					"type": "address"
				}
			],
			"payable": false,
			"stateMutability": "view",
			"type": "function"
		},
		{
			"constant": true,
			"inputs": [],
			"name": "seizeGuardianPaused",
			"outputs": [
				{
					"internalType": "bool",
					"name": "",
					"type": "bool"
				}
			],
			"payable": false,
			"stateMutability": "view",
			"type": "function"
		},
		{
			"constant": true,
			"inputs": [],
			"name": "transferGuardianPaused",
			"outputs": [
				{
					"internalType": "bool",
					"name": "",
					"type": "bool"
				}
			],
			"payable": false,
			"stateMutability": "view",
			"type": "function"
		}
	]
}